:020000040800F2
:10000000D008002001010008731A000879190008BF
:10001000711A0008B10100089D1B000800000000D3
:10002000000000000000000000000000971A000817
:10003000BB02000800000000951A0008991A000889
:100040001B0100081B0100081B0100081B01000820
:100050001B0100081B0100081B0100081B01000810
:100060001B0100081B0100081B0100081B01000800
:100070001B0100081B0100081B0100081B010008F0
:100080001B0100081B0100081B0100081B010008E0
:10009000911B00081B0100081B0100081B01000840
:1000A0001B0100081B0100081B0100081B010008C0
:1000B0001B0100081B0100081B0100081B010008B0
:1000C0001B0100081B0100081B0100081B010008A0
:1000D0001B0100081B0100081B0100081B01000890
:1000E0001B0100081B0100081B010008DFF80CD0F1
:1000F00000F04CF800480047BD1B0008D008002065
:100100000648804706480047FEE7FEE7FEE7FEE7B1
:10011000FEE7FEE7FEE7FEE7FEE7FEE7291B000835
:10012000ED000008202A04DB203A21FA02F0002129
:10013000704721FA02F3D040C2F1200291400843F7
:100140001946704740EA01039B0703D009E008C93C
:10015000121F08C0042AFAD203E011F8013B00F88C
:10016000013B521EF9D27047D2B201E000F8012BD8
:10017000491EFBD270470022F6E710B513460A4627
:1001800004461946FFF7F0FF204610BD064C074D08
:1001900006E0E06840F0010394E807009847103457
:1001A000AC42F6D3FFF7A6FF801C0008A01C000895
:1001B000FEE710B54FF4D872036802EB01129B58AA
:1001C00013F00404436B9C600468436BA45856D03E
:1001D000E4085C6003689A58436B02F00202DA603C
:1001E0004FF4DA72036802EB01129B58446B03F080
:1001F0000F03236103689A58436BC2F30722DA6145
:100200004FF4DC72036802EB01129B58446B2375B8
:1002100003689B58446B1B0A637503689B58446BC7
:100220001B0CA37503689A58436B120EDA754FF4D2
:10023000DE72036802EB01129B58446B237603685D
:100240009B58446B1B0A637603689B58446B1B0CDA
:10025000A37603689A58436B120E0029DA76016878
:1002600010D00A6942F020020A6101684A6922F04E
:1002700010024A6190F8391022290CD010E0640D68
:100280001C60A7E7CA6842F02002CA6001684A6998
:1002900022F00202EDE701684A6922F40F424A6146
:1002A00090F83910322906D0012180F8391000F079
:1002B000BBFA002010BD1221F7E770470649002065
:1002C000C8610648016941F004010161016941F01A
:1002D0004001016170470000B0040020002002408E
:1002E000064A0021D16106490A6942F002020A6108
:1002F0004861086940F0400008617047B004002080
:1003000000200240044B0022DA61044A136943F0E2
:100310000103136101807047B004002000200240F7
:100320000E49C868C2060E4803D5C26942F00202EF
:10033000C261CA68520703D5C26942F00102C261B4
:10034000CA69D20707D0C26942F00402C261C86913
:1003500020F00100C8611420C860704700200240EE
:10036000B004002070B5044600F0CAFD0546114EE9
:1003700009E0601C07D024B100F0C2FD401BA04280
:1003800001D9032070BDF068C007F2D1F068800683
:1003900001D52020F060F068C00605D4F069C007E0
:1003A00002D1F068400703D5FFF7BAFF012070BD06
:1003B000002070BD00200240F0B50B7D012404FA3E
:1003C00003F20368D3F800524E6A25F47C5504EB1F
:1003D00006242543C3F800520368D3F81C42944313
:1003E000C3F81C424FF41074CB69251DBBB90368D8
:1003F000D3F80C629643C3F80C628E894B684F6940
:1004000066F31F43066804EBC707F3510E890B68B8
:100410004F6966F31F43066805EBC707F351CB69C5
:10042000012B17D10368D3F80C621643C3F80C6292
:100430000E884B684F6966F31F43066804EBC704D8
:1004400033510C89CB684E6964F31F43046805EB94
:10045000C60563518B69002B0368D3F804420FD0A3
:100460001443C3F804420B69002B0368D3F8144209
:1004700008D01443C3F81442096A012904D009E0E2
:100480009443EEE79443F5E70168D1F81C32134337
:10049000C1F81C320068D0F8001221F00101C0F848
:1004A00000120020F0BD704770B50168044648692D
:1004B0004FF00105C043C00721D18A6859489043D5
:1004C00007D08A685848904303D08A6857489043B9
:1004D00015D14A69204622F001024A6194F8391088
:1004E000122904D101684A6922F40F424A6190F846
:1004F0003910322962D080F8395000F001FB2068B1
:100500004169C943890706D4C068800703D0002128
:100510002046FFF74EFE20684169C943C90606D44C
:100520000069800703D001212046FFF742FE2068C2
:100530008169C9070BD04169C943C90507D441691D
:10054000C943090403D4E16B41F00101E16381690E
:1005500089070BD54169C943890507D44169C94356
:10056000090403D4E16B41F00201E16381694907A9
:100570000BD54169C943490507D44169C9430904F9
:1005800003D4E16B41F00401E163816911F0700F64
:1005900029D04169C943090525D44169C9430904E2
:1005A00021D4816901F0700140292ED00ADC102984
:1005B0000DD020290FD0302911D122E0222180F83E
:1005C00039109AE7502924D0602908D125E0E16B41
:1005D00041F0080102E0E16B41F01001E163816943
:1005E00021F070018161E06B002809D0206841682A
:1005F00041F00401416084F839502046FFF753FF71
:1006000070BDE16B41F02001E8E7E16B41F0400192
:10061000E4E7E16B41F08001E0E7E16B41F48071D8
:10062000DCE70000030000040003000800000310E2
:100630002DE9F0474FF000080400454604D094F837
:100640003900002718B107E00120BDE8F08784F8E1
:100650003870204600F078F8022084F839002068CD
:10066000016821F0020101602068016841F0010188
:10067000016000F045FC06464FF0030904E000F07D
:100680003FFC801B0A2844D820684068C007F6D089
:1006900020684168C9074AD0A169012901D145F004
:1006A0008005E169012901D145F04005216A012950
:1006B00001D145F02005616A012901D145F01005FD
:1006C000A16A012901D145F00805E16A012901D19A
:1006D00045F00405016821F0FC0129430160D4E9DB
:1006E00002010843D4E90412114308436168491E1A
:1006F00008432168C8612068016821F00101016098
:1007000000F0FEFB05460AE000F0FAFB401B0A2859
:1007100005D984F8399084F83870032095E720686B
:100720004068C007F0D020684068C00702D1B8F127
:10073000000F05D0E763012084F83900002084E72A
:10074000042084F839007FE710B50168194886B0A5
:1007500081422CD11848C16941F00071C161C06962
:10076000164C00F0007004904FF480700090002050
:10077000019002906946204600F0D4FA611500917C
:1007800002210191032103916946204600F0CAFA33
:100790000B48416821F4C04141F48041416000228E
:1007A0000521142000F034FC142000F026FC06B0D3
:1007B00010BD00000064004000100240000C014029
:1007C0000000014030B590F83920012A03D090F89C
:1007D0003920122A25D190F83820012A21D001226F
:1007E00080F8382090F83920122A15D0222280F87B
:1007F00039200023C3630268546948F601752C430D
:10080000546180F8383000680029416906D041F011
:1008100010014161002030BD3222E8E741F00201C1
:10082000F7E7022030BD00002DE9F84F446B064683
:1008300040F28E702168814208D06168814205D003
:10084000BDE8F84F00214B48FFF7BCBFDFF8288117
:1008500098F80100012500274FF4005B4FF4806AEF
:10086000022807D0207D01285DD0022861D003280E
:100870007BD175E0DFF8FC902269D8F8083004F1EC
:10088000140109F1900909EB0300FFF75BFC706BA1
:10089000D8F8081000690844C8F80800D8F808001B
:1008A000504562D1142000F09DFB4FF400613348A5
:1008B00000F01CFB30484FF480724946103000F0C5
:1008C00020F998F8000040282BD800F019FAA9F177
:1008D00010000097076098F800104FF0006202EBDC
:1008E0008121C0E90215694600F06AF900244E46EC
:1008F00098F80000325904EB80210023022001F116
:10090000006100F0BBF9241D5445F1D300F0ACF9AF
:10091000012001F02DF988F80150142000F06DFB42
:1009200023E00220F5E788F80150012001F020F9CA
:100930001BE098F80100012817D10E48514690306D
:10094000FFF719FCD4F81600C8F80C00607D0830D9
:1009500088F80000022088F80100C8F8087004E058
:10096000012001F005F901F009F85946044800F0AA
:10097000BDFA65E7200000200000002000080140CB
:10098000001001402DE9F05F044690F838000E4653
:10099000012812D04FF0010984F8389094F83900FA
:1009A00022280DD0122084F83900216888684FF081
:1009B0000008400106D500250DE00220BDE8F09FAB
:1009C0003220F0E78868000101D5012503E088683E
:1009D000C0004FD502254FF4C07000EB05100A5837
:1009E00002F001020A50216B8A68EAB323681F589B
:1009F0001743CA68496842EAC1010F431F50216B7F
:100A00000A7C02F00F020A614FF4C271226801EB06
:100A10000511535823F00F03535022685358276B86
:100A20003F693B435350216B4FF4C47303EB0513F1
:100A30000A7DD1F8151042EA01222168CA50216BC3
:100A40004FF4C67303EB05130A7ED1F8191042EA7E
:100A500001212268D15021680A5842F001020A504F
:100A600000F04EFA074600E00BE0DFF888A0DFF860
:100A700088B01DE0042084F8390084F83880012013
:100A80009CE722681358CF6809883B4343EA4151E9
:100A90001150B4E7701C0BD026B100F031FAC01B26
:100AA000B04205D9032084F8390084F8388085E7FE
:100AB0008DB12068012D816812D01048884300282C
:100AC000E8D194F8390032280DD084F8399084F8B0
:100AD0003880002072E7206881682AEA0100EEE78A
:100AE0002BEA0100EBE7222084F8390084F83880F3
:100AF000EDE70000030000040003000800000310FD
:100B0000704770B504790023012C09D001240471C9
:100B1000022545710568AE6846F00106AE6006E044
:100B2000022070BD066851F8235035605B1C93426B
:100B3000F8D34471002101710068006870BD10B5E0
:100B4000040002D0607910B106E0012010BD002041
:100B50002071204600F004F801206071002010BDD3
:100B600008B500680649884208D10648416941F045
:100B700040014161406900F04000009008BD000064
:100B80000030024000100240064810B54FF0FF311F
:100B9000C16000220261C160C26000F0E2F9002081
:100BA00010BD00000010024031B500F0A9F9044664
:100BB00000F0A6F90099001B8842F9D338BD000067
:100BC0002DE9F047054626480F460126017E0129FA
:100BD0000FD00121814601762868DFF888804CF229
:100BE0005034022808D0A2462046FFF7BBFBA8B12C
:100BF00031E00220BDE8F0872046FFF7B3FB08BBD9
:100C00000120FFF75BFB2046FFF7ACFBD8F8101084
:100C1000064621F00401C8F810101CE04FF0FF3028
:100C20003860AC6811E02046FFF75AFB5046FFF7EA
:100C300099FBD8F81010060021F00201C8F8101036
:100C400001D03C6007E004F58064D5E9020100EBC7
:100C50008120A042E7D8002189F818103046C9E762
:100C6000B0040020002002400348016941F08001E7
:100C70000161002070470000002002402DE9F05F74
:100C800005461D4888460024017E16461F46012958
:100C900009D00121814601764CF2503A5046FFF7C7
:100CA00061FB18B123E00220BDE8F09F012D02D0C6
:100CB000022D00D00425D346DFF840A015E0220124
:100CC00030463946FFF72EFA81B208EB4400FFF7B1
:100CD00019FB5846FFF746FBDAF8102022F0010214
:100CE000CAF8102018B9641CE4B2AC42E7D3002261
:100CF00089F81820D8E70000B00400200020024046
:100D000005480169090605D5044941600449416067
:100D100000207047012070470020024023016745F2
:100D2000AB89EFCD2DE9F84FDFF8A091002309F151
:100D3000040A0AF1040B1C464FF00F080BF1040ED5
:100D400001270A68A7403A40BA4272D1DFF880C151
:100D50004D68A5EB0C0665452BD00DDC032D34D07A
:100D600005DC35B3012D19D0022D2FD11BE0112D3B
:100D700016D0122D2AD119E0B6F5881F19D006DC3D
:100D8000B6F5803F15D0B6F5801F1FD111E0B6F53E
:100D9000001F0ED0B6F5041F18D10AE0CB6815E08D
:100DA000CB681B1D12E0CB6808330FE0CB680C3317
:100DB0000CE08B682BB1012B4FF0080303D0476187
:100DC00004E0042302E0076100E00023FF2A01D8C9
:100DD000064601E000F104064FEA840501D9A5F1B9
:100DE0002005376808FA05FC27EA0C0703FA05F521
:100DF00047EA050737604D68ED0060D5354DAE69AF
:100E000046F00106AE61AD6924F0030605F0010568
:100E10000095314D7719BE68A5072D0F08FA05FC1E
:100E200026EA0C06DFF8B4C0604503D14FF0000C91
:100E300017E044E0DFF8A8C0604502D14FF0010C94
:100E40000FE0DFF8A0C0604502D14FF0020C08E0CF
:100E5000DFF894C0604502D14FF0030C01E04FF081
:100E6000040C0CFA05FC4CEA060CC7F808C04D68E7
:100E7000D9F80060ED034D4601D5164300E09643D6
:100E80002E604D68DAF80060AD03554601D5164373
:100E900000E096432E604D68DBF80060ED025D4691
:100EA00001D5164300E096432E604D68DEF80060E1
:100EB000AD02754601D5164300E096432E60641CD2
:100EC000102CFFF43DAFBDE8F88F00000004014096
:100ED0000000111000100240000001400008014015
:100EE000000C01400010014000140140C2684A405B
:100EF000C26070470AB1016170470904FBE7000056
:100F0000014800687047000018000020024801688E
:100F1000491C01607047000018000020074810B508
:100F2000016841F010010160032000F091F80020F9
:100F300000F006F800F016F8002010BD0020024076
:100F400010B5044600F0ECF94FF47A71B0FBF1F003
:100F500000F0FAFC00222146501E00F059F8002053
:100F600010BD70471D4808B5816941F001018161DC
:100F7000806900F001000090032000F069F8002271
:100F800011466FF00B0000F043F8002211466FF09D
:100F90000A0000F03DF8002211466FF0090000F051
:100FA00037F800221146501F00F032F80022114697
:100FB000101F00F02DF800221146901E00F028F8B6
:100FC00000221146501E00F023F80548416821F028
:100FD000E06141F00071416008BD00000010024076
:100FE0000000014000F01F020121914040098000F3
:100FF00000F1E020C0F88011704700F01F020121CD
:1010000091404009800000F1E020C0F800117047D5
:10101000F0B40E4B1B68C3F30223C3F10704042C86
:1010200000D904241D1D072D01D2002300E0DB1E82
:10103000012606FA04F56D1E0D409D409E40761E69
:10104000164045EA0601F0BC00F014BD0CED00E0CE
:10105000064A00F0070110684FF6FF03184040EA07
:101060000120034908431060704700000CED00E0C8
:101070000000FA052DE9F84304460078454EC00704
:1010800073D0F06940F08050F061F069424F00F099
:1010900080500090386840F480703860FFF730FF6F
:1010A000054604E0FFF72CFF401B642832D838685F
:1010B000C005F7D5306A10F4407050D0A18801F413
:1010C000407181424BD0306A01273B0493FAA3F16F
:1010D000B1FA81F18A00314920F440700A44C2F823
:1010E000007493FAA3F3B3FA83F301EB83010022B4
:1010F000C1F800243062C00731D0FFF701FF054678
:1011000041F288394FF0020807E0FFF7F9FE411B72
:10111000494502D90320BDE8F88398FAA8F0B0FA4F
:1011200080F040F040004146B7EB501F01D13068DD
:101130000BE091FAA1F0B0FA80F040F04000B1EB82
:10114000501F01D1306A00E0706A98FAA8F1B1FA34
:1011500081F101F01F0207FA02F10842D5D0306A8E
:10116000616820F44070084330622078800705D51C
:101170007068A16820F44040084370602078C00681
:1011800005D57068E16820F4800008437060002095
:10119000C1E7000000100240007000400000424221
:1011A0002DE9F047DFF8688104460E46D8F80000C4
:1011B00000F00700B0420CD2D8F8001021F007016F
:1011C0003143C8F80010D8F8000000F00700B04222
:1011D00073D120784F4F800705D57868A16820F03B
:1011E000F000084378602078C00755D0606801227D
:1011F00001280CD0022828D0022393FAA3F1B1FAD7
:1012000081F141F02001490904D0396803E04FF42D
:101210000033F2E7796A93FAA3F3B3FA83F303F0A6
:101220001F039A40114248D0796821F0030101431D
:101230007960FFF765FE0546606841F28831012854
:101240000CD00228894615D022E04FF00073D4E775
:10125000FFF756FE411B494501D916E089467868DB
:10126000C0F381000128F3D116E0FFF749FE411BCE
:1012700049450AD87868C0F381000228F5D10BE00F
:10128000FFF73EFE411B494502D90320BDE8F08728
:10129000786810F00C0FF3D1D8F80010404601F038
:1012A0000701B1420BD9016821F007013143016008
:1012B000006800F00700B04201D00120E6E7207886
:1012C000400705D57868E16820F4E060084378605D
:1012D0002078000706D57868216920F4605040EA3C
:1012E000C100786000F022F87968F02292FAA2F248
:1012F00001F0F001B2FA82F2D140074A515CC840D5
:10130000064908600020FFF71BFE0020BEE7000032
:101310000020024000100240701C00081C00002049
:1013200001480068704700001C00002010B519A09B
:1013300085B00FC88DE80F001AA01B4B0068049001
:1013400059681A4801F00C02042A1DD0082A1BD142
:101350004FF4701494FAA4F401F47012B4FA84F403
:10136000E240C9031DF8022010D559684FF400333C
:1013700093FAA3F301F40031B3FA83F3D94004AB39
:10138000595CB0FBF1F0504305B010BD0848504324
:10139000FAE7000002030405060708090A0B0C0D12
:1013A0000E0F1010010200000010024000127A001F
:1013B00000093D002DE9F84F04460078FE4EC007B5
:1013C0004FF001057FD070684FF40038C0F3810002
:1013D000012807D07068C0F3810002281BD1706813
:1013E000C00318D598FAA8F0B0FA80F040F02000B9
:1013F000400901D0306800E0706A98FAA8F1B1FAAB
:1014000081F101F01F0105FA01F108425BD060682B
:10141000002879D057E06068B0F5803F0BD010B15C
:10142000B0F5A02F11D0306820F4803030603068E3
:1014300020F4802002E0306840F480303060606842
:1014400018B3FFF75DFD074609E0306840F48020DF
:101450003060F0E7FFF754FDC01B642870D898FA9D
:10146000A8F0B0FA80F040F02000400901D03068C8
:1014700000E0706A98FAA8F1B1FA81F101F01F0159
:1014800005FA01F10842E5D01DE0FFF739FD0746F6
:1014900004E0FFF735FDC01B6428DFD898FAA8F0F8
:1014A000B0FA80F040F02000400901D0306800E040
:1014B000706A98FAA8F1B1FA81F101F01F0105FAFA
:1014C00001F10842E5D12078DFF8F08280074FF083
:1014D000000A4FF002075AD570684FF0F80B10F071
:1014E0000C0F07D07068C0F3810002281CD170680F
:1014F000C00319D497FAA7F0B0FA80F040F02000AA
:10150000400902D0306801E08AE0706A97FAA7F1DA
:10151000B1FA81F101F01F0105FA01F108422BD067
:10152000206901287CD127E0206988B395FAA5F0CD
:10153000B0FA80F048F82050FFF7E2FC814606E060
:101540004DE1FFF7DDFCA0EB0900022886D897FAF1
:10155000A7F0B0FA80F040F02000400901D03068D8
:1015600000E0706A97FAA7F1B1FA81F101F01F016A
:1015700005FA01F10842E4D030689BFAABF220F0A2
:10158000F8016069B2FA82F290400143316025E0CF
:10159000FFE795FAA5F1B1FA81F148F821A0FFF72C
:1015A000AFFC814605E0FFF7ABFCA0EB0900022889
:1015B000CCD897FAA7F0B0FA80F040F020004009AC
:1015C00001D0306800E0706A97FAA7F1B1FA81F1B2
:1015D00001F01F0105FA01F10842E4D1207800076B
:1015E0006DD5A069B8B395FAA5F0B0FA80F008EB14
:1015F0008000C0F88054FFF783FC814605E0FFF7C8
:101600007FFCA0EB09000228A0D897FAA7F0B0FA57
:1016100080F040F06000B5EB501F02D130680CE064
:1016200063E197FAA7F0B0FA80F040F06000B7EB02
:10163000501F01D1306A00E0706A97FAA7F1B1FA41
:1016400081F101F01F0105FA01F21042D7D001200B
:10165000FFF7AAFA33E0FFE795FAA5F1B1FA81F1B5
:1016600008EB8101C1F880A4FFF74AFC814605E040
:10167000FFF746FCA0EB0900022899D897FAA7F0DB
:10168000B0FA80F040F06000B5EB501F01D1306837
:101690000BE097FAA7F0B0FA80F040F06000B7EBEB
:1016A000501F01D1306A00E0706A97FAA7F1B1FAD1
:1016B00081F101F01F0105FA01F21042D8D1207822
:1016C000400763D5F06940F08050F061F069DFF8C1
:1016D000F0B000F080500090DBF8001041F4807111
:1016E000CBF80010FFF70CFC814605E0FFF708FC83
:1016F000A0EB0900642872D8DBF80000C005F5D51E
:10170000E06801280AD008B1052813D0306A20F01B
:1017100001003062306A20F0040002E0306A40F0DC
:1017200001003062E06841F2883B80B3FFF7E8FBDC
:1017300081460AE0306A40F004003062EEE7FFF7CD
:10174000DFFBA0EB0901594549D897FAA7F0B0FA99
:1017500080F040F04000B5EB501F01D130680BE045
:1017600097FAA7F0B0FA80F040F04000B7EB501FB6
:1017700001D1306A00E0706A97FAA7F1B1FA81F1FD
:1017800001F01F0205FA02F10842D8D033E0FFE76A
:10179000FFF7B6FB814605E0FFF7B2FBA0EB0901BE
:1017A00059451CD897FAA7F0B0FA80F040F04000F5
:1017B000B5EB501F08D105E0001002400000424286
:1017C0000070004030680CE097FAA7F0B0FA80F0A3
:1017D00040F04000B7EB501F02D1306A01E08AE0D0
:1017E000706A97FAA7F1B1FA81F101F01F0205FAC8
:1017F00002F10842D0D1E06998B37168C1F3810168
:10180000022972D002284FF080714FF0007B5046C1
:101810000AD091FAA1F1B1FA81F148F82100FFF75D
:101820006FFB04465F4669E08A4691FAA1F1B1FA7E
:1018300081F1C14648F82100FFF762FBA846074640
:101840005D4604E0FFF75CFBC01B022853D895FA05
:10185000A5F0B0FA80F040F02000400902D03068D6
:1018600001E060E0706A95FAA5F1B1FA81F101F04A
:101870001F0208FA02F10842E4D1206AB0F5803F65
:1018800005D17068A16820F4003008437060D4E985
:1018900008010843716821F47411084370609AFAD2
:1018A000AAF0B0FA80F0474649F82080FFF728FBFD
:1018B000044604E0FFF724FB001B02281BD895FA1E
:1018C000A5F0B0FA80F040F02000400901D0306867
:1018D00000E0706A95FAA5F1B1FA81F101F01F01FB
:1018E00007FA01F10842E5D01DE01EE0FFF708FB12
:1018F000001B022802D90320BDE8F88F97FAA7F051
:10190000B0FA80F040F02000400901D0306800E0DB
:10191000706A97FAA7F1B1FA81F101F01F0105FA97
:1019200001F10842E2D10020E6E70120E4E74FF0B0
:10193000E0210428086903D020F004000861704702
:1019400040F00400FAE7704710B5401EB0F1807F08
:1019500001D3012010BD4FF0E02460610F2160171A
:1019600000F088F80020A06107202061002010BD51
:1019700010B5FFF7E8FF10BDFEE70000064810B500
:101980004168064C6160006880F30888FFF7FCF846
:101990006068BDE8104000470020000800000020FB
:1019A0000D4810B501220B49C0E900120021D304F3
:1019B0008160C0E903134FF4A003C0E90531C161A0
:1019C000C0E908128162C162FEF732FE002800D031
:1019D000FEE710BD0064004020000020F0B5214863
:1019E00085B0816941F020018161816901F02001A8
:1019F0000491816941F004018161816901F0040170
:101A00000491816941F008018161816901F0080157
:101A10000491816941F0100181618069124D00F0EB
:101A200010004FF400640490002221462846FFF77E
:101A300061FA0126CDE9004602246946284603944E
:101A4000FFF770F9094F2503002229463846FFF7B2
:101A500051FACDE90056694638460394FFF762F91A
:101A600005B0F0BD00100240000801400010014028
:101A7000FEE770470907090E002806DA00F00F009C
:101A800000F1E02080F8141D704700F1E02080F89C
:101A9000001470477047704710B5FFF737FABDE87C
:101AA0001040FFF765BF70B594B009200124009085
:101AB0004FF48030002504940694CDE901050226F8
:101AC000CDE907604FF4E01009906846FFF772FC1B
:101AD00000B1FEE70F20CDE90A064FF48060CDE9A2
:101AE0000C5002210AA80E95FFF75AFB00B1FEE741
:101AF0004FF40070CDE90F400FA8FFF7BBFA00B11B
:101B0000FEE7FFF70DFC4FF47A71B0FBF1F0FFF741
:101B10001BFF0420FFF70BFF00221146501EFFF7AA
:101B200077FA14B070BD00000D48016841F0010162
:101B3000016041680B4A1140416001680A4A114046
:101B40000160016821F480210160416821F4FE01F7
:101B500041604FF41F0181600449C0030860704771
:101B6000001002400000FFF8FFFFF6FE08ED00E065
:101B7000064940F28E720B6B1A600B6B01221A61E0
:101B8000096B087511460148FEF7FCBE20000020D5
:101B90000148FEF789BC000020000020FEE702E0BB
:101BA00008C8121F08C1002AFAD1704770470020E8
:101BB00001E001C1121F002AFBD170478AB0FFF774
:101BC000ADF9FFF770FFFFF709FFFFF7E9FE2449C2
:101BD000224808600846FEF7B2FF00B1FEE721493F
:101BE000A1F1400001631C31416300200121CDE9D6
:101BF00006010590039009910090019002900490D5
:101C00001848089169464038FEF7D6FB0122164D68
:101C1000D40221462846FFF76DF9144FA600002292
:101C200031463846FFF766F90E4800214038FEF786
:101C3000C9FD41F28830FEF7B7FF00222146284651
:101C4000FFF758F9012231463846FFF753F90448A7
:101C50001038407808B9FFF791FEFEE700300240E7
:101C6000100000206000002000080140001001402A
:101C7000000000000000000001020304060708093C
:101C8000A01C000800000020200000009E1B00088F
:101C9000C01C000820000020B0080000AE1B000897
:101CA0000000000000000000000000000000000034
:101CB00000000000000000000000000000A24A0434
:04000005080000ED02
:00000001FF
