:020000040800F2
:10000000D8080020990100085F1B00086B1A00083F
:100010005D1B0008C9020008591C00080000000010
:10002000000000000000000000000000891B000824
:100030002304000800000000851B00088B1B00083B
:10004000B3010008811B0008B3010008B3010008D8
:10005000D5040008871B0008B3010008B30100089D
:10006000B3010008B3010008B3010008B3010008A0
:10007000B3010008B3010008B3010008B301000890
:10008000B3010008B3010008B3010008F102000841
:10009000CD020008D9020008E5020008B3010008FB
:1000A000B3010008B3010008B3010008B301000860
:1000B000B3010008B3010008B3010008B301000850
:1000C000B3010008B3010008B3010008B301000840
:1000D000B3010008B3010008B3010008B301000830
:1000E000B3010008B3010008B3010008B301000820
:1000F000B3010008B3010008B3010008B301000810
:10010000B3010008B3010008B3010008B3010008FF
:10011000B3010008B3010008B3010008B3010008EF
:10012000B3010008B3010008B3010008B3010008DF
:10013000B30100080000000000000000B301000847
:10014000B3010008B3010008B3010008B3010008BF
:10015000B3010008B3010008B3010008B3010008AF
:10016000B3010008B3010008B3010008B30100089F
:10017000B3010008B3010008000000000000000007
:10018000B3010008DFF80CD000F08CF800480047FD
:10019000791C0008D8080020064880470648004718
:1001A000FEE7FEE7FEE7FEE7FEE7FEE7FEE7FEE727
:1001B000FEE7FEE7F11B0008850100082DE9F05F6E
:1001C0000546002092469B468846064681464024C6
:1001D0001BE0284641464746224600F053F8534666
:1001E0005A46C01A914110D311461846224600F0D3
:1001F0003AF82D1A67EB01084F46224601200021EC
:1002000000F031F817EB00094E41201EA4F1010463
:10021000DFDC484631462A464346BDE8F09F40EAC7
:1002200001039B0703D009E008C9121F08C0042A74
:10023000FAD203E011F8013B00F8013B521EF9D25B
:100240007047D2B201E000F8012B491EFBD2704783
:100250000022F6E710B513460A4604461946FFF792
:10026000F0FF204610BD202A04DB203A00FA02F1FC
:10027000002070479140C2F1200320FA03F3194394
:1002800090407047202A04DB203A21FA02F0002136
:10029000704721FA02F3D040C2F120029140084396
:1002A00019467047064C074D06E0E06840F0010330
:1002B00094E8070098471034AC42F6D3FFF766FF86
:1002C000201D0008401D0008FEE70000014800F066
:1002D0002FBA000070040020014800F029BA000085
:1002E00070040020014800F023BA000070040020D0
:1002F000014800F01DBA00007004002010B500296C
:1003000058D0826B4FF4D873046803EB0113E458A0
:1003100014F0040494600468E4584DD0E408546078
:100320000468E35803F00203D3604FF4DA730468FF
:1003300003EB0113E45804F00F0414611162046824
:10034000E358C3F30723D3614FF4DC73046803EB72
:100350000113E45814750468E458240A54750468B9
:10036000E458240C94750468E3581B0ED3754FF4BD
:10037000DE73046803EB0113E45814760468E45850
:10038000240A54760468E458240C94760468E358EC
:100390001B0ED3760368202289B11A610268536963
:1003A00023F05003536190F83C20222A0DD0322ACA
:1003B0000BD00FE0426BA5E7640D1460B0E7DA6084
:1003C0000268536923F00A03ECE70268536923F4D7
:1003D0000F43536112220123002990F83C1006D0EC
:1003E000522915D0622916D0722906D115E042296A
:1003F0000ED0622908D0722908D080F83C3000BFA6
:1004000000F004FC002010BD322107E0522105E07D
:1004100080F83C20F4E7222100E0422180F83C10E3
:10042000EEE7704770470000002229B101291FD074
:10043000022920D04FF4407210490B6823F4407316
:100440000B600B6813430B600A6822F0F8020A6025
:100450000A68F82393FAA3F3B3FA83F3984040F0C1
:10046000020002430A60086840F480300860704768
:100470004FF48072E0E74FF40072DDE7103C024079
:100480001348016889050FD5016821F400710160E6
:10049000016841F400610160016821F400610160BC
:1004A000016841F400710160016849050FD50168D8
:1004B00021F480610160016841F4805101600168AC
:1004C00021F480510160016841F48061016070474E
:1004D000003C024000F0FEBD08490A6822F4407268
:1004E0000A600A6842F004020A600A684FF4803326
:1004F00043EA002002430A6070470000103C0240BB
:10050000064A136823F4407313601368136013687A
:1005100043F001031360017070470000103C02407B
:10052000084910B50C6824F440740C600C6844F45D
:1005300040740C600C6844F001040C60026043607D
:1005400010BD0000103C0240074A136823F44073BA
:100550001360136843F480731360136843F001035E
:100560001360018070470000103C0240074A136886
:1005700023F440731360136843F40073136013682B
:1005800043F001031360016070470000103C02401B
:1005900017490868C206174805D5C26942F0080223
:1005A000C26110220A600A68920605D5C26942F04B
:1005B0000402C26120220A600A68520605D5C26997
:1005C00042F00202C26140220A600A68120605D5A2
:1005D000C26942F00102C26180220A600A68920781
:1005E00005D5C26942F01002C2610220086070475E
:1005F0000C3C0240B404002070B5114904460020B0
:10060000C86100F015FF06460E4D09E0601C07D0DA
:1006100024B100F00DFF801BA04201D9032070BD62
:100620002868C003F2D42868C00701D001202860E0
:10063000286810F0F200F2D0FFF7AAFF012070BD89
:10064000B40400200C3C0240F0B50A7D012090402B
:10065000344A136843F001031360136823F47C5396
:10066000136013684C6A43EA042313602D4B1C3358
:100670001C6884431C602B4D2B4CCE690C35A6B9ED
:100680002E6886432E608F894E6867F31F464F6938
:1006900004EBC707C7F840660F890E6867F31F466B
:1006A0004F6904EBC707C7F84466CE69012E14D121
:1006B0002E6806432E600E884D6866F31F454E690E
:1006C00004EBC606C6F840560E89CD6866F31F4592
:1006D0004E6904EBC604C4F84456124C8D69241DBF
:1006E000002D256806D0054325600E4C0D69143495
:1006F00015B104E08543F7E72568854325600D695A
:10070000012D02D1256805432560096A012902D11E
:10071000196801431960106820F001001060002082
:10072000F0BD00000066004000600040704700001F
:100730002DE9F041044600680026C168C1F30013AA
:100740004169C1F3C002102113B10AB14E01C16069
:10075000206802694369C2F30012C3F380131AB11F
:1007600013B146F480660161216848694FF00105C4
:10077000C043C0074ED18A687648904323D00020FA
:100780008B68754A9A4320D000228F68734BBB4315
:100790001DD00023104318433CD088688A68C0F3FA
:1007A00040008B68C2F34022C3F340431043184318
:1007B00029D04A69204622F001024A6194F83C108F
:1007C000122906D00AE00120DAE70122DDE7012341
:1007D000E0E701684A6922F40F424A6190F83C1050
:1007E000422908D0522908D0722908D080F83C50FC
:1007F00000F0B2FB09E0222102E0322100E0622198
:1008000080F83C10F4E746F4006620688168544A9A
:10081000114381602168C868496910F0030FC1F372
:10082000400104D019B100212046FFF767FD21687F
:100830000869496910F0030FC1F3001104D019B120
:1008400001212046FFF75AFD206C304320642068C8
:100850008169426911F0010F4369C2F30022C3F3B9
:10086000C03305D022B11BB1216C41F001012164DC
:100870008169C1F340034169C1F340224169C1F379
:10088000C0312BB122B119B1216C41F002012164B8
:100890008169C1F3800341694269C1F38021C2F3D8
:1008A000C0322BB121B11AB1216C41F00401216495
:1008B000816911F0700F08D000224169C1F3C02393
:1008C0004169C1F3C03112B121E00122F5E7F3B172
:1008D000E9B1816901F0700140292FD006DC1029AF
:1008E00009D020290BD030290DD123E0502929D05F
:1008F000602908D12AE0216C41F0080102E0216C56
:1009000041F010012164816921F070018161206C46
:1009100000280DD021680420486084F83C502068ED
:10092000416948F65B72914341612046FFF7FEFE44
:10093000BDE8F081216C41F02001E3E7216C41F03A
:100940004001DFE7216C41F08001DBE7216C41F4DD
:100950008071D7E7030000040003000800000310C3
:10096000190501002DE9F041040004D094F83C0081
:10097000002518B107E00120BDE8F08184F83D5062
:10098000204600F093F8022084F83C0020680168BB
:1009900021F0020101602068016841F0010101605D
:1009A00000F046FD0746032605E000BF00F040FDCD
:1009B000C01B0A2863D820684068C007F6D02068AA
:1009C0004168C90768D0A169012901683FD021F0B9
:1009D00080010160E0690128206801683AD021F0B7
:1009E00040010160206A01282068016835D021F0AB
:1009F00020010160606A01282068016830D021F080
:100A000010010160A06A0128206801682BD021F044
:100A100008010160E06A01282068016826D021F001
:100A200004010160D4E902010843D4E9041211432E
:100A300008436168491E08432168C861206801684D
:100A400021F00101016000F0F3FC07461CE041F0D9
:100A50008001BEE741F04001C3E741F02001C8E753
:100A600041F01001CDE741F00801D2E741F0040167
:100A7000D7E700BF00F0DCFCC01B0A2804D904F84B
:100A80003C6F0320657077E720684068C007F1D1AC
:100A900020684068C00703D0042084F83C006AE75F
:100AA0002564012084F83C00002065E710B586B07D
:100AB000044614216846FFF7CBFB2449206888428E
:100AC00041D123480021026842F0007202600068B0
:100AD00000F0007005901E481038026842F00102D4
:100AE0000260006800F0010005904FF4C0500090D3
:100AF0000220CDE9010103200390092004906946FA
:100B0000144800F0ABFB00221146132000F014FD46
:100B1000132000F006FD00220621142000F00CFD39
:100B2000142000F0FEFC00220721152000F004FD37
:100B3000152000F0F6FC00220921162000F0FCFC34
:100B4000162000F0EEFC06B010BD0000006400406E
:100B5000403802400000024030B511B1012925D0D3
:100B600010E090F83C20222A28D090F83C20422A1D
:100B700024D000BF90F83C20622A1FD090F83C207F
:100B8000722A1BD090F83D20012A17D0012280F84C
:100B90003D20622290F83C40722389B1122C19D07A
:100BA000222C18D0422C19D0322214E090F83C208C
:100BB000322A03D090F83C20522ADBD1022030BDEB
:100BC000122C05D0322C06D0522C07D0222202E063
:100BD000422200E0522280F83C2001E080F83C30C4
:100BE0000022026403685C6948F601752C435C616D
:100BF00080F83D2000680029416904D041F050018F
:100C00004161002030BD41F00A01F9E72DE9F84FBC
:100C1000446B074640F28E702168814208D06168BB
:100C2000814205D0BDE8F84F00215348FFF794BF3B
:100C3000DFF8488198F80100DFF844B1012600256B
:100C40004FF4806A022807D0207D01286DD0022849
:100C500072D0032866D185E0DFF828912269D8F8A0
:100C6000043004F1140109EB0300FFF7D8FA786BA4
:100C7000D8F8041000690844C8F80400D8F8040043
:100C80005746B84273D1132000F040FC142000F006
:100C90003DFC152000F03AFC162000F037FC202126
:100CA000584600F0BBFB4FF480724946364800F0CE
:100CB00055F998F80000402835D800F0BBFAA9F1A2
:100CC00014000095056098F800104FF0006202EBE8
:100CD0008121C0E90216694600F0AEF900244D46B4
:100CE00098F800002A5904EB80210023022001F12A
:100CF000006100F061FA241DBC42F1D300F050FA0B
:100D00005FF0010000F098FF88F80160132000F008
:100D100008FC142000F005FC152000F002FC162051
:100D200000F0FFFB23E00220ECE788F801600120DF
:100D300000F082FF1BE0FFE798F80100012816D1C0
:100D400051461048FFF784FAD4F81600C8F8080096
:100D5000607D083088F80000022088F80100C8F89B
:100D6000045004E0012000F067FF00F07FFE102136
:100D7000584600F053FB55E77004002000000020A7
:100D800000040240700000200C0000202DE9F05FFC
:100D90000E46016804468868400105D48868000151
:100DA00002D48868C0006FD594F83D0001280CD0AB
:100DB000012784F83D7094F83C00222808D032289E
:100DC00008D062280ED0122005E00220BDE8F09F76
:100DD000422000E0522084F83C008868400103D59E
:100DE000002507E07220F6E78868000101D501259B
:100DF00000E002254FF4C07000EB05100A5802F025
:100E000001020A50216B8A68EAB3D4F800C05CF88A
:100E100000301343CA68496842EAC1010B434CF8E9
:100E20000030216B0A7C02F00F020A614FF4C2719C
:100E3000226801EB0511535823F00F035350226829
:100E40005358D4F830C0DCF810C043EA0C035350B8
:100E5000216B4FF4C47303EB05130A7DD1F8151011
:100E600042EA01222168CA50216B4FF4C67303EB9A
:100E700005130A7ED1F8191042EA01222168CA50EE
:100E800021680A5801E00DE05AE042F001020A50E0
:100E900000F0CEFA81464FF00008DFF8B0A0DFF88E
:100EA000B0B026E022681358D1F80CC0098843EA94
:100EB0000C0343EA41511150B3E7701C19D02EB115
:100EC00000F0B6FAA0EB0900B04212D9032084F872
:100ED0003C004DB1012D09D04FF40000216888601D
:100EE00084F83D80032071E78020F7E74FF400404D
:100EF000F4E7ADB12068012D816816D0154888430C
:100F00000028DAD194F83C00422811D0522811D0A0
:100F1000722813D084F83C7084F83D80002055E797
:100F2000206881682AEA0100EAE72BEA0100E7E786
:100F3000222000E0322084F83C00EDE76220FAE74E
:100F4000042084F83C00012040E700000300000476
:100F500000030008000003107047000070B504791A
:100F60000023012C09D00124047102254571056874
:100F7000AE6846F00106AE6007E0022070BD00BF1B
:100F8000066851F8235035605B1C9342F8D34471D6
:100F9000002101710068006870BD10B5040002D026
:100FA000607910B106E0012010BD002020712046BC
:100FB00000F006F80220607101206071002010BD71
:100FC00008B500680649884208D10648016841F41E
:100FD00080510160006800F48050009008BD00005E
:100FE00000300240303802400B4A10B54FF0FF305D
:100FF000106000211160121D10601160064A103A45
:1010000010601160121D10601160121D10601160DF
:1010100000F04AFA002010BD2038024031B500F03F
:1010200007FA009C0546601C00D0641C00F000FA22
:10103000401BA042FAD338BD2DE9F04704462248B0
:101040000F46017E01290AD00121804601764CF22B
:1010500050394846FFF7D0FA020003D02FE00220B3
:10106000BDE8F0874FF0FF3038602068174D012849
:1010700001D0A6681CE0207C6168FFF72DFA484685
:10108000FFF7BAFA0246286820F00400286014E04E
:10109000217C3046FFF7C8F94846FFF7ADFA020059
:1010A000286820F0FA00286001D03E6005E0761C38
:1010B000D4E902100844B042EAD8FFF7E1F9002170
:1010C00088F818101046CBE7B4040020103C02400A
:1010D000704700002DE9F0412F4F38682F4C10F079
:1010E000F20F4FF0FF384FF000050DD020780128A7
:1010F0002DD0207802282ED0D4F81460FFF748FABB
:10110000304600F057F825703868C0070BD0012032
:1011100038602078012820D02078022837D06069F4
:10112000FFF7D6FF2570207800280ED11A48001D41
:10113000016821F0FF010160016821F08071016008
:10114000016821F0007101602576BDE8F081E66854
:10115000C4F80C80D2E72669D0E76068401E606062
:10116000606850B1E068FFF7B3FFE068401CE060E2
:10117000E068217AFFF758F9D5E74646C4F80C80B5
:101180002570FFF77DF93046FFF7A2FFCBE7FFF7A9
:1011900077F92069C4E700000C3C0240B404002049
:1011A0000348016841F000410160002070470000E1
:1011B000103C0240704700002DE9F0471B4E0546E9
:1011C0001446307E1F468946012808D0012030761B
:1011D0004CF250384046FFF70FFA18B114E00220E5
:1011E000BDE8F0879DB1012D16D0022D19D0224601
:1011F0003B464846FFF794F94046FFF7FDF90C4996
:101200000A6822F001020A6000213176E8E7E1B2C3
:101210004846FFF775F9EFE7A1B24846FFF794F9A2
:10122000EAE721464846FFF7A1F9E5E7B4040020C4
:10123000103C024006480068002807DA04480549C7
:101240000C3801600449016000207047012070479C
:10125000103C024023016745AB89EFCD2DE9F84FE3
:10126000DFF888B100224FF001084FF0030A4FF079
:101270000F090BF1040E00BF0B6808FA02F42340BB
:10128000A3426ED14D68022D01D0122D0ED1D5088A
:1012900000EB850CDCF820505607F70E09FA07F62C
:1012A000B5430E69BE402E43CCF820600668550059
:1012B0000F790AFA05FC07F0030726EA0C06AF408F
:1012C000374307604E68012E05D0022E03D0112E41
:1012D00001D0122E0ED18668CF6826EA0C06AF40E8
:1012E000374387604668A6430C79C4F300149440E2
:1012F00034434460C4688E6824EA0C04AE4026433C
:10130000C6604C68E4006AD5394C256845F48045D0
:101310002560246822F0030504F480440094354CD1
:101320002E19D6F8084895072F0F09FA07F5AC4390
:10133000314DA84201D1002529E0304DA84201D10C
:10134000012524E02E4DA84201D102251FE02D4D9C
:10135000A84201D103251AE02B4DA84202D1042551
:1013600015E03CE0294DA84201D105250FE0284DAC
:10137000A84201D106250AE0264DA84201D1072541
:1013800005E0254DA84201D1082500E00925BD4012
:101390002543C6F80858DBF800405D464E689C437C
:1013A000F60300D51C432C60DEF8004075464E68FD
:1013B0009C43B60300D51C432C600C4D08352C68AB
:1013C0004E689C43F60200D51C432C60074D0C353B
:1013D0002C684E689C43B60200D51C432C60521CFE
:1013E000102AFFF449AFBDE8F88F0000003C01402F
:1013F0004438024000300140000002400004024036
:1014000000080240000C024000100240001402409C
:1014100000180240001C02400020024042694A407D
:10142000426170470AB1816170470904FBE700001F
:10143000014800687047000014000020024801685D
:10144000491C016070470000140000200B4810B5D3
:10145000016841F400710160016841F4806101603C
:10146000016841F480710160032000F085F80020DC
:1014700000F006F800F01AF8002010BD003C024011
:1014800010B5044607484FF47A710068B0FBF1F0DC
:1014900000F0D3FA00222146501E00F04DF8002043
:1014A00010BD00001800002070470000164808B565
:1014B000016841F480410160006800F480400090C0
:1014C0001148001F016841F080510160006800224E
:1014D00000F0805000900C21012000F02DF8012038
:1014E00000F01FF800220B21042000F025F8042052
:1014F00000F017F800220A21052000F01DF8BDE8D1
:101500000840052000F00DB84438024000F01F02EA
:10151000012191404009800000F1E020C0F88011D5
:10152000704700F01F02012191404009800000F146
:10153000E020C0F800117047F0B40E4B1B680C4659
:10154000C3F30223C3F10705042D00D90425191D97
:10155000072901D2002300E0DB1E012606FA05F16F
:10156000491E214099409E40761E16403143F0BCF2
:1015700000F0F6BA0CED00E0064900F0070208683A
:101580004FF6FF03184040EA0220034A1043086068
:10159000704700000CED00E00000FA057047000005
:1015A00010B5054C2068C00304D5FFF7F7FF4FF4D2
:1015B0008030206010BD0000143C01402DE9F04750
:1015C0000E46050063D0DFF81C81D8F80000F7B2A2
:1015D00000F00F00B04207D288F80070D8F8000081
:1015E00000F00F00B04252D128683F4C810712D55D
:1015F000400703D5206840F4E050206028780007B9
:1016000003D5206840F4604020602068A96820F07D
:10161000F000084320602878C0072BD03249686862
:101620000839012810D00968022810D0890700293C
:101630002DDA216821F0030101432160FFF7F8FE54
:10164000814641F2883A0EE009688903EFE7890193
:10165000EDE700BFFFF7ECFEA0EB0901514502D911
:101660000320BDE8F0872068696800F00C00B0EB4B
:10167000810FEFD1D8F80010404601F00F01B142C0
:1016800007D90770006800F00F00B04201D00120B8
:10169000E7E72878400705D52068E96820F4E0509E
:1016A000084320602878000706D52068296920F4BF
:1016B000604040EAC100206000F01CF82168F02280
:1016C00092FAA2F201F0F001B2FA82F2D140074A96
:1016D000515CC840064908600020FFF7D1FE002099
:1016E000BFE70000003C024008380240101D00081F
:1016F00018000020154810B5006810F00C021448BE
:1017000013D04110042A0FD0082A0ED10F4C241FE9
:101710002268236802F03F025B0207D52068C0F30D
:101720008810A0FB010106E0084610BD2168C1F346
:101730008811A1FB00010023FEF740FD2168C1F3E1
:101740000141491C4900B0FBF1F010BD08380240CE
:101750000024F4002DE9F84F04007BD0DFF8C882A4
:101760002078A8F1040BC007ABF1040536D0D8F8F7
:1017700000104046C1F38101012908D00068C0F380
:10178000810002280AD1DBF80000400206D5286853
:10179000800323D560680028DFD01FE0A2492079AC
:1017A000891F0870606860B1FFF742FE064604E0DA
:1017B000FFF73EFE801B642874D828688003F7D5A5
:1017C0000CE0FFF735FE064605E000BFFFF730FEF0
:1017D000801B6428F0D828688003F7D42078934EC3
:1017E00080074FF0010A4FF0000742D5D8F80010EB
:1017F000404611F00C0F08D00068C0F381000228A9
:101800000AD1DBF80000400206D42868800714D50E
:10181000E06801281ED110E0E068E0B1C6F800A041
:10182000FFF706FE814605E0FFF702FEA0EB090088
:101830000228C1D828688007F6D52868F82292FACD
:10184000A2F22169B2FA82F220F0F8009140084336
:1018500028600EE0E5E03760FFF7EAFD814605E02D
:10186000FFF7E6FDA0EB090002281BD828688007D7
:10187000F6D42078000726D56D48616999B1C0F883
:1018800000A0FFF7D5FD814606E000BFFFF7D0FDC1
:10189000A0EB0900022805D863486C300068800777
:1018A000F4D510E087E00760FFF7C2FD814605E050
:1018B000FFF7BEFDA0EB090002287CD85A486C3027
:1018C00000688007F4D42078400749D5564838305E
:1018D000016841F080510160006800F08050009084
:1018E0005448016841F480710160FFF7A1FD814611
:1018F00006E000BFFFF79CFDA0EB090002285AD8C4
:101900004C480068C005F5D5DFF81C91207A09F134
:10191000680989F80000A06888B1FFF789FD009088
:1019200008E000BFFFF784FD0099411A41F28830BA
:1019300081426ED8D9F800008007F3D510E0FFF798
:1019400077FD009008E000BFFFF772FD0099411A93
:1019500041F2883081425CD8D9F800008007F3D486
:10196000A06948B3D8F80010C1F38101022958D00A
:101970000228376603D0FFF75BFD04464CE0FFF713
:1019800057FD074605E000BFFFF752FDC01B642866
:101990003FD828688001F7D4D4E90701084347F607
:1019A000C07292FAA2F2616AB2FA82F291404FF0EA
:1019B000FF33A26A01E02CE031E003EB52024FF466
:1019C000403393FAA3F3B3FA83F39A4011430843E5
:1019D0004FF0706292FAA2F2E16AB2FA82F291409A
:1019E0000843CBF80000C6F860A0FFF721FD0446CD
:1019F00005E000BFFFF71CFD001B642809D828681C
:101A00008001F7D50BE000BFFFF712FD001B642833
:101A100002D90320BDE8F88F28688001F4D40020A3
:101A2000F8E70120F6E700000838024000004742CE
:101A3000800E474200700040704710B5401EB0F164
:101A4000807F01D3012010BD4FF0E02460610F21A1
:101A5000601700F085F80020A061072020610020B9
:101A600010BD10B5FFF7E8FF10BDFEE7054810B543
:101A70004468006880F30888FFF7B6FAA446BDE81A
:101A800010406047002000080F4810B50D49016064
:101A90000921416000214FF400228160C0E9031256
:101AA0004FF44012C0E90521C161016241628162C7
:101AB000C162FEF757FF002803D0BDE81040FEF7D3
:101AC000B1BC10BD0064004070040020074910B58F
:101AD000054808600846FFF760FA002803D0BDE813
:101AE0001040FEF79FBC10BD003002400C000020EB
:101AF00030B587B014216846FEF7AAFB15480024CC
:101B0000016841F080010160016801F080010591E8
:101B1000016841F001010160016801F001010591D6
:101B2000016841F00201016000680B4D00F0020005
:101B30000590002230212846FFF774FC30200090E9
:101B40000120CDE90104694628460394FFF786FB8E
:101B500007B030BD3038024000040240FEE7704755
:101B60000907090E002806DA00F00F0000F1E02056
:101B700080F8141D704700F1E02080F800147047D1
:101B8000FFF70EBD70477047704710B5FFF756FC62
:101B9000BDE81040FFF765BF10B592B03021684630
:101BA000FEF756FB14210CA8FEF752FB0120009013
:101BB000019002248005CDE9064008200890F0201D
:101BC000CDE9090404200B906846FFF7C3FD0F2000
:101BD000CDE90C0400200E904FF4A0500F90E002CD
:101BE000109003210CA8FFF7E9FC12B010BD000013
:101BF0000D48016841F0010101600B4A00210832E3
:101C000011600268094B1A400260031D084A1A60FD
:101C1000026822F48022026003480C30016005490A
:101C2000580608607047000000380240FFFFF6FECB
:101C30001030002408ED00E0064940F28E720B6B74
:101C40001A600B6B01221A61096B08751146014875
:101C5000FFF79CB870040020FEE702E008C8121FDE
:101C600008C1002AFAD170477047002001E001C185
:101C7000121F002AFBD170478AB0FFF7E7FBFFF77E
:101C80008BFFFFF735FFFFF7FFFEFFF71FFF1D4834
:101C90001B4901631C31416300200121CDE906018C
:101CA0000390099105900090019002900891049092
:101CB00069461448FEF7C8FC134C01222021204637
:101CC000FFF7B0FB012210212046FFF7ABFB0021FC
:101CD0000C48FEF741FF41F28830FFF79FF90022E0
:101CE00020212046FFF79EFB002210212046FFF70F
:101CF00099FB0648407808B9FFF7B8FEFEE70000F8
:101D00001C0000207004002000040240000000209D
:101D1000000000000000000001020304060708099B
:101D2000401D0008000000201C0000005A1C000894
:101D30005C1D00081C000020BC0800006A1C000894
:101D40000000000000000000000000000000000093
:0C1D500000000000000000000024F4006F
:040000050800018569
:00000001FF
