:020000040800F2
:10000000D808002099010008DF1A00080F1A00081C
:10001000DD1A0008C9020008E51B00080000000006
:10002000000000000000000000000000091B0008A4
:100030004904000800000000051B00080B1B000815
:10004000B3010008011B0008B3010008B301000858
:10005000F9040008071B0008B3010008B3010008F9
:10006000B3010008B3010008B3010008B3010008A0
:10007000B3010008B3010008B3010008B301000890
:10008000B3010008B3010008B3010008F102000841
:10009000CD020008D9020008E5020008B3010008FB
:1000A000B3010008B3010008B3010008B301000860
:1000B000B3010008B3010008B3010008B301000850
:1000C000B3010008B3010008B3010008B301000840
:1000D000B3010008B3010008B3010008B301000830
:1000E000B3010008B3010008B3010008B301000820
:1000F000B3010008B3010008B3010008B301000810
:10010000B3010008B3010008B3010008B3010008FF
:10011000B3010008B3010008B3010008B3010008EF
:10012000B3010008B3010008B3010008B3010008DF
:10013000B30100080000000000000000B301000847
:10014000B3010008B3010008B3010008B3010008BF
:10015000B3010008B3010008B3010008B3010008AF
:10016000B3010008B3010008B3010008B30100089F
:10017000B3010008B3010008000000000000000007
:10018000B3010008DFF80CD000F08CF800480047FD
:10019000051C0008D808002006488047064800478C
:1001A000FEE7FEE7FEE7FEE7FEE7FEE7FEE7FEE727
:1001B000FEE7FEE7711B0008850100082DE9F05FEE
:1001C0000546002092469B468846064681464024C6
:1001D0001BE0284641464746224600F053F8534666
:1001E0005A46C01A914110D311461846224600F0D3
:1001F0003AF82D1A67EB01084F46224601200021EC
:1002000000F031F817EB00094E41201EA4F1010463
:10021000DFDC484631462A464346BDE8F09F40EAC7
:1002200001039B0703D009E008C9121F08C0042A74
:10023000FAD203E011F8013B00F8013B521EF9D25B
:100240007047D2B201E000F8012B491EFBD2704783
:100250000022F6E710B513460A4604461946FFF792
:10026000F0FF204610BD202A04DB203A00FA02F1FC
:10027000002070479140C2F1200320FA03F3194394
:1002800090407047202A04DB203A21FA02F0002136
:10029000704721FA02F3D040C2F120029140084396
:1002A00019467047064C074D06E0E06840F0010330
:1002B00094E8070098471034AC42F6D3FFF766FF86
:1002C000BC200008DC200008FEE70000014800F028
:1002D00041BA000074040020014800F03BBA00005D
:1002E00074040020014800F035BA000074040020B6
:1002F000014800F02FBA00007404002010B5002956
:1003000058D0826B4FF4D873046803EB0113E458A0
:1003100014F0040494600468E4584DD0E408546078
:100320000468E35803F00203D3604FF4DA730468FF
:1003300003EB0113E45804F00F0414611162046824
:10034000E358C3F30723D3614FF4DC73046803EB72
:100350000113E45814750468E458240A54750468B9
:10036000E458240C94750468E3581B0ED3754FF4BD
:10037000DE73046803EB0113E45814760468E45850
:10038000240A54760468E458240C94760468E358EC
:100390001B0ED3760368202289B11A610268536963
:1003A00023F05003536190F83C20222A0DD0322ACA
:1003B0000BD00FE0426BA5E7640D1460B0E7DA6084
:1003C0000268536923F00A03ECE70268536923F4D7
:1003D0000F43536112220123002990F83C1006D0EC
:1003E000522914D0622915D0722906D114E042296D
:1003F0000DD0622907D0722907D080F83C3000F078
:100400001BFC002010BD322107E0522105E080F8DE
:100410003C20F4E7222100E0422180F83C10EEE786
:1004200010B54FF0FF32074C08E010F8013B534085
:10043000DBB2491E54F8233083EA12220029F4D19A
:10044000D04310BDAC1C000870477047002229B192
:1004500001291FD0022920D04FF4407210490B68A7
:1004600023F440730B600B6813430B600A6822F09F
:10047000F8020A600A68F82393FAA3F3B3FA83F345
:10048000984040F0020002430A60086840F480305F
:10049000086070474FF48072E0E74FF40072DDE7C8
:1004A000103C02401348016889050FD5016821F40A
:1004B00000710160016841F400610160016821F48C
:1004C00000610160016841F4007101600168490543
:1004D0000FD5016821F480610160016841F4805109
:1004E0000160016821F480510160016841F480617C
:1004F00001607047003C024000F0B6BD08490A6840
:1005000022F440720A600A6842F004020A600A6833
:100510004FF4803343EA002002430A607047000032
:10052000103C0240064A136823F4407313601368BA
:100530001360136843F001031360017070470000FB
:10054000103C0240084910B50C6824F440740C605B
:100550000C6844F440740C600C6844F001040C60B6
:100560000260436010BD0000103C0240074A13685F
:1005700023F440731360136843F4807313601368AB
:1005800043F001031360018070470000103C0240FB
:10059000074A136823F440731360136843F400732D
:1005A0001360136843F0010313600160704700009B
:1005B000103C024017490868C206174805D5C269B1
:1005C00042F00802C26110220A600A68920605D54C
:1005D000C26942F00402C26120220A600A6852061F
:1005E00005D5C26942F00202C26140220A600A686F
:1005F000120605D5C26942F00102C26180220A607A
:100600000A68920705D5C26942F01002C261022051
:10061000086070470C3C0240B804002070B51149D6
:1006200004460020C86100F0D1FE05460E4E09E0E8
:10063000601C07D024B100F0C9FE401BA04201D9C4
:10064000032070BD3068C003F2D43068C00701D009
:1006500001203060306810F0F200F2D0FFF7AAFFFE
:10066000012070BDB80400200C3C0240F0B50A7DAA
:1006700001209040344A136843F00103136013686B
:1006800023F47C53136013684C6A43EA0423136019
:100690002D4D1C352B6883432B602B4C2B4BCE6987
:1006A0000C34A6B92668864326608F894E6867F3A6
:1006B0001F464F6903EBC707C7F840660F890E68EE
:1006C00067F31F464F6903EBC707C7F84466CE6957
:1006D000012E14D12668064326600E884C6866F306
:1006E0001F444E6903EBC606C6F840460E89CC6827
:1006F00066F31F444E6903EBC603C3F84446124B2E
:100700008C691B1D002C1C6806D004431C600E4B1A
:100710000C69143314B104E08443F7E71C68844384
:100720001C600C69012C02D11C6804431C60096A1E
:10073000012902D1296801432960106820F00100D5
:1007400010600020F0BD0000006600400060004026
:10075000704700002DE9F041044600680026C1689A
:100760004269C1F30011C2F3C002102311B10AB1F2
:100770005E01C360206801694269C1F30011C2F3E0
:10078000801219B112B146F480660361216848698C
:100790004FF00105C043C0074ED18A6876489043A8
:1007A00023D000228B687548984320D000238F689F
:1007B0007348B8431DD000201A4302433CD08868D8
:1007C0008A68C0F340008B68C2F34022C3F3404301
:1007D0001043184329D04A69204622F001024A6199
:1007E00094F83C10122906D00AE00122DAE701232E
:1007F000DDE70120E0E701684A6922F40F424A611F
:1008000090F83C10422908D0522908D0722908D00B
:1008100080F83C5000F0B0FB09E0222102E03221D8
:1008200000E0622180F83C10F4E746F4006620689E
:100830008168544A114381602068C168406911F0A1
:10084000030FC0F3400004D018B100212046FFF789
:1008500055FD20680169406911F0030FC0F30010D5
:1008600004D018B101212046FFF748FD206C304329
:10087000206420688169C1F3000241694369C1F3C2
:100880000021C3F3C0332AB121B11BB1216C41F067
:10089000010121648169C1F3400241694369C1F3E7
:1008A0004021C3F3C0332AB121B11BB1216C41F007
:1008B000020121648169C1F3800241694369C1F386
:1008C0008021C3F3C0332AB121B11BB1216C41F0A7
:1008D00004012164816911F0700F08D00021426980
:1008E0004369C2F3C022C3F3C03311B121E0012137
:1008F000F5E7F2B1EBB1816901F0700140292FD029
:1009000006DC102909D020290BD030290DD123E095
:10091000502929D0602908D12AE0216C41F0080132
:1009200002E0216C41F010012164816921F0700125
:100930008161206C00280DD021680420486084F873
:100940003C502068416948F65B7291434161204602
:10095000FFF7FEFEBDE8F081216C41F02001E3E7E6
:10096000216C41F04001DFE7216C41F08001DBE7C1
:10097000216C41F48071D7E70300000400030008F4
:1009800000000310190501002DE9F04104004FF0AB
:10099000000604D094F83C00002518B107E00120BF
:1009A000BDE8F08184F83D50204600F093F8022025
:1009B00084F83C002068016821F002010160206891
:1009C000016841F00101016000F000FD07464FF0B1
:1009D000030804E000F0FAFCC01B0A2862D8206873
:1009E0004068C007F6D020684168C90767D0A16990
:1009F000012901683FD021F080010160E0690128F0
:100A0000206801683AD021F040010160206A012885
:100A10002068016835D021F020010160606A01285A
:100A20002068016830D021F010010160A06A01281F
:100A3000206801682BD021F008010160E06A0128DC
:100A40002068016826D021F004010160D4E9020188
:100A50000843D4E90412114308436168491E08435E
:100A60002168C8612068016821F00101016000F07F
:100A7000ADFC07461BE041F08001BEE741F04001BC
:100A8000C3E741F02001C8E741F01001CDE741F094
:100A90000801D2E741F00401D7E700F097FCC01B42
:100AA0000A2804D904F83C8F0320657078E7206891
:100AB0004068C007F1D120684068C00700D02EB15F
:100AC0002564012084F83C00002069E7042084F8B4
:100AD0003C0064E710B586B0044614216846FFF771
:100AE000B7FB24492068884241D12348002102688D
:100AF00042F000720260006800F0007005901E482D
:100B00001038026842F001020260006800F0010043
:100B100005904FF4C05000900220CDE90101032060
:100B20000390092004906946144800F05FFB0022FE
:100B30001146132000F0CEFC132000F0C0FC002270
:100B40000621142000F0C6FC142000F0B8FC00229E
:100B50000721152000F0BEFC152000F0B0FC00229B
:100B60000921162000F0B6FC162000F0A8FC06B003
:100B700010BD000000640040403802400000024008
:100B800030B511B1012924D00FE090F83C20222A81
:100B900027D090F83C20422A23D090F83C20622AAB
:100BA0001FD090F83C20722A1BD090F83D20012ADB
:100BB00017D0012280F83D20622490F83C20722357
:100BC00089B1122A19D0222A1BD0422A1CD03222E3
:100BD00014E090F83C20322A03D090F83C20522AAE
:100BE000DBD1022030BD122A05D0322A09D0522A88
:100BF0000AD0222202E0422200E0522280F83C2069
:100C000004E080F83C4001E080F83C3000230364BD
:100C10000268546948F601752C43546180F83D30F0
:100C200000680029416904D041F050014161002071
:100C300030BD41F00A01F9E72DE9F84F446BDFF8C8
:100C4000708106462168D8F80800814208D06168A2
:100C5000814205D0BDE8F84F00215648FFF790BF0C
:100C600098F80200DFF850B1012500274FF4806AA0
:100C7000022807D0207D012874D0022878D00328CC
:100C80006BD18BE0DFF834912269D8F80C3004F195
:100C9000140109EB0300FFF7C2FA706BD8F80C10CF
:100CA00000690844C8F80C00D8F80C005446A0426B
:100CB00079D1132000F0F8FB142000F0F5FB15208B
:100CC00000F0F2FB162000F0EFFB2021584600F068
:100CD00073FBA24621464846FFF7A2FBC8F8140062
:100CE000D8F8101088423BD198F80100402837D836
:100CF00000F068FAA9F114000097076098F8011055
:100D00004FF0006202EB8121C0E90215694600F054
:100D10005DF900244E46574698F80100325904EB1D
:100D200080210023022001F1006100F00DFA241D52
:100D3000BC42F1D300F0FCF9012000F03DFF88F83F
:100D40000250132000F0BBFB142000F0B8FB15206C
:100D500000F0B5FB162000F0B2FB24E002E007E053
:100D60000220EAE788F80250012000F025FF1AE08F
:100D700098F80200012816D151461048FFF768FA8A
:100D8000D4F81600C8F81000607D083088F801001B
:100D9000022088F80200C8F80C7004E0012000F07E
:100DA0000BFF00F035FE1021584600F005FB51E71F
:100DB00000000020740400200004024074000020A1
:100DC0002DE9F05F0E46016804468868400105D4AD
:100DD0008868000102D48868C00070D594F83D008E
:100DE00001280DD04FF0010884F83D8094F83C00B4
:100DF000222808D0322808D062280ED0122005E020
:100E00000220BDE8F09F422000E0522084F83C0020
:100E10008868400103D5002507E07220F6E788685E
:100E2000000101D5012500E002254FF4C07000EB60
:100E300005100A5802F001020A50216B8A68EAB3D1
:100E400023681F581743CA68496842EAC1010F4323
:100E50001F50216B0A7C02F00F020A614FF4C2712D
:100E6000226801EB0511535823F00F0353502268F9
:100E70005358276B3F693B435350216B4FF4C47366
:100E800003EB05130A7DD1F8151042EA012221680F
:100E9000CA50216B4FF4C67303EB05130A7ED1F8D9
:100EA000191042EA01222168CA5021680A5842F00A
:100EB00001020A5000F08AFA074601E007E050E01C
:100EC0004FF00009DFF8A4A0DFF8A4B023E0226807
:100ED0001358CF6809883B4343EA41511150B8E7A2
:100EE000701C18D026B100F071FAC01BB04212D9A4
:100EF000032084F83C004DB1012D09D04FF40000CF
:100F00002168886084F83D9003207AE78020F7E725
:100F10004FF40040F4E78DB12068012D816812D0B4
:100F2000144888430028DBD194F83C0042280DD0B7
:100F300052280DD0722812D040460AE020688168FD
:100F40002AEA0100EEE72BEA0100EBE7222000E0AD
:100F5000322084F83C0084F83D90002051E7622064
:100F6000F7E7042084F83C0001204AE7030000046E
:100F70000003000800000310704700000B4A10B582
:100F80004FF0FF30106000211160121D10601160E1
:100F9000064A103A10601160121D10601160121D97
:100FA0001060116000F04EFA002010BD20380240A1
:100FB00031B500F00BFA009C0546601C00D0641CA3
:100FC00000F004FA401BA042FAD338BD2DE9F047E7
:100FD000044622480E46017E01290AD0012180469E
:100FE00001764CF250394846FFF718FB020003D057
:100FF0002FE00220BDE8F0874FF0FF30306020681E
:10100000174F012801D0A5681CE0207C6168FFF71C
:1010100075FA4846FFF702FB0246386820F00400E4
:10102000386014E0217C2846FFF710FA4846FFF7A5
:10103000F5FA0200386820F0FA00386001D0356017
:1010400005E06D1CD4E902100844A842EAD8FFF775
:1010500029FA002188F818101046CBE7B8040020C0
:10106000103C0240704700002DE9F0412E4F3868D7
:101070002E4D10F0F20F4FF0FF384FF000060CD05D
:10108000287801282CD0287802282DD06C69FFF709
:1010900091FA204600F056F82E703868C0070BD041
:1010A000012038602878012820D02878022837D0FD
:1010B0006869FFF7D7FF2E70287800280ED11A48EC
:1010C000001D016821F0FF010160016821F08071BD
:1010D0000160016821F0007101602E76BDE8F081A9
:1010E000EC68C5F80C80D2E72C69D0E76868401E30
:1010F0006860686850B1E868FFF7B4FFE868401CB2
:10110000E860E868297AFFF7A1F9D5E74446C5F811
:101110000C802E70FFF7C6F92046FFF7A3FFCBE740
:10112000FFF7C0F92869C4E70C3C0240B80400206E
:101130000348016841F00041016000207047000051
:10114000103C0240704700002DE9F0471B4E054659
:101150001446307E1F468946012808D0012030768B
:101160004CF250384046FFF759FA18B114E002200B
:10117000BDE8F0879DB1012D16D0022D19D0224671
:101180003B464846FFF7DEF94046FFF747FA0C4971
:101190000A6822F001020A6000213176E8E7E1B234
:1011A0004846FFF7BFF9EFE7A1B24846FFF7DEF97F
:1011B000EAE721464846FFF7EBF9E5E7B8040020E7
:1011C000103C024006480068002807DA0448054938
:1011D0000C3801600449016000207047012070470D
:1011E000103C024023016745AB89EFCD2DE9F84F54
:1011F000DFF89491002209F1040A0AF1040B4FF080
:101200000F080BF1040E01260B6896403340B342E1
:1012100071D14C68022C01D0122C11D1D40800EBF2
:1012200084073D6A5407E40E08FA04FC25EA0C051D
:10123000D1F810C00CFA04FC4CEA050CC7F820C029
:1012400007685400032591F804C0A5400CF0030C76
:10125000AF430CFA04FC4CEA070CC0F800C04F681E
:10126000012F05D0022F03D0112F01D0122F11D141
:101270008768D1F80CC0AF430CFA04FC4CEA070CA9
:10128000C0F808C04768B7430E79C6F30016964009
:101290003E434660C668AE438D68A5403543C56091
:1012A0004C68E4006AD5394C256845F480452560D2
:1012B000246822F0030504F480440094344C25444F
:1012C000D5F808789407260F08FA06F4A743314C9E
:1012D000A04201D1002429E02F4CA04201D10124D9
:1012E00024E02E4CA04201D102241FE02C4CA0424D
:1012F00002D103241AE041E02A4CA04201D1042487
:1013000014E0294CA04201D105240FE0274CA04253
:1013100001D106240AE0264CA04201D1072405E0B1
:10132000244CA04201D1082400E00924B4403C43ED
:10133000C5F80848D9F800404D464E689C43F6036E
:1013400000D51C432C60DAF8004055464E689C439B
:10135000B60300D51C432C60DBF800405D464E68A8
:101360009C43F60200D51C432C60DEF80040754615
:101370004E689C43B60200D51C432C60521C102AB8
:10138000FFF441AFBDE8F88F003C01404438024013
:10139000003001400000024000040240000802400A
:1013A000000C0240001002400014024000180240ED
:1013B000001C02400020024042694A4042617047DE
:1013C0000AB1816170470904FBE700000148006829
:1013D000704700001800002002480168491C0160A5
:1013E00070470000180000200B4810B5016841F458
:1013F00000710160016841F480610160016841F49D
:1014000080710160032000F085F8002000F006F8EC
:1014100000F01AF8002010BD003C024010B5044650
:1014200007484FF47A710068B0FBF1F000F0D7FA8A
:1014300000222146501E00F04DF8002010BD000093
:101440001C00002070470000164808B5016841F4F0
:1014500080410160006800F4804000901148001F46
:10146000016841F0805101600068002200F0805066
:1014700000900C21012000F02DF8012000F01FF851
:1014800000220B21042000F025F8042000F017F8BA
:1014900000220A21052000F01DF8BDE808400520C3
:1014A00000F00DB84438024000F01F0201219140C5
:1014B0004009800000F1E020C0F88011704700F082
:1014C0001F02012191404009800000F1E020C0F896
:1014D00000117047F0B40E4B1B68C3F30223C3F135
:1014E0000704042C00D904241D1D072D01D200235C
:1014F00000E0DB1E012606FA04F56D1E0D409D403E
:101500009E40761E164045EA0601F0BC00F0E8BA9F
:101510000CED00E0064A00F0070110684FF6FF03EB
:10152000184040EA0120034908431060704700005A
:101530000CED00E00000FA057047000010B5054C06
:101540002068C00304D5FFF7F7FF4FF48030206018
:1015500010BD0000143C01402DE9F0470D46040089
:1015600062D0DFF81891D9F80000EFB200F00F0058
:10157000A84207D289F80070D9F8000000F00F00E7
:10158000A84251D120683E4E810712D5400703D5AD
:10159000306840F4E05030602078000703D53068B0
:1015A00040F4604030603068A16820F0F0000843EB
:1015B00030602078C0072AD0314960680839012896
:1015C00010D00968022810D0890700292CDA316868
:1015D00021F0030101433160FFF7F8FE804641F23C
:1015E000883A0DE009688903EFE78901EDE7FFF725
:1015F000EDFEA0EB0801514502D90320BDE8F087BC
:101600003068616800F00C00B0EB810FEFD1D9F8C1
:101610000010484601F00F01A94207D90770006881
:1016200000F00F00A84201D00120E7E72078400732
:1016300005D53068E16820F4E05008433060207838
:10164000000706D53068216920F4604040EAC100F7
:10165000306000F01BF83168F02292FAA2F201F03B
:10166000F001B2FA82F2D140064A515CC840064904
:1016700008600020FFF7D2FE0020BFE7003C0240D8
:1016800008380240AC2000081C000020154810B5A6
:10169000006810F00C01144813D0431004290FD037
:1016A00008290ED10F4C241F216801F03F02216848
:1016B000490207D52068C0F38810A0FB030106E0AB
:1016C000184610BD2168C1F38811A1FB0001002359
:1016D000FEF774FD2168C1F30141491C4900B0FBCC
:1016E000F1F010BD083802400024F4002DE9F84F55
:1016F00004006FD02078DFF8D092B44DC00735D009
:10170000D9F800104846C1F38101012908D00068CA
:10171000C0F3810002280AD1281D0068400206D5C6
:101720002868800322D560680028E2D01EE0A7491F
:101730002079891C0870606860B1FFF747FE064693
:1017400004E0FFF743FE801B642876D828688003F6
:10175000F7D50BE0FFF73AFE064604E0FFF736FE4A
:10176000801B6428F1D828688003F7D42078984F2C
:1017700080074FF0010B4FF000084ED5D9F800104C
:10178000484611F00C0F4FF0F80A09D00068C0F37A
:101790008100022816D18C48001F0068400211D435
:1017A0002868800702D5E068012813D128689AFAD2
:1017B000AAF22169B2FA82F220F0F80091400843BF
:1017C00028602AE0E068D0B1C7F800B0FFF7FEFD5E
:1017D000064605E0F5E0FFF7F9FD801B0228B4D8C6
:1017E00028688007F7D528689AFAAAF220F0F8014D
:1017F0002069B2FA82F29040014329600DE0C7F8F7
:101800000080FFF7E3FD064604E0FFF7DFFD801BE5
:10181000022812D828688007F7D42078000726D538
:10182000DFF8A4A16B4861690AF16C0A81B1C0F8C4
:1018300000B0FFF7CBFD064605E076E0FFF7C6FDFA
:10184000801B022871D8DAF800008007F6D50EE078
:10185000C0F80080FFF7BAFD064604E0FFF7B6FDCA
:10186000801B022861D8DAF800008007F6D42078BF
:10187000400746D554483830016841F08051016036
:101880000068DFF854A100F080500090DAF80010F2
:1018900041F48071CAF80010FFF798FD064604E095
:1018A000FFF794FD801B02283FD8DAF80000C0053E
:1018B000F6D5DFF814A1207A0AF1680A8AF8000048
:1018C000A06878B1FFF782FD064606E0FFF77EFDCF
:1018D000811B41F2883081426BD8DAF80000800722
:1018E000F4D50EE0FFF772FD064606E0FFF76EFD49
:1018F000811B41F2883081425BD8DAF80000800712
:10190000F4D4A069F0B3D9F80010C1F38101022921
:1019100057D00228C7F8608003D0FFF757FD044670
:101920004AE0FFF753FD064605E042E0FFF74EFDB3
:10193000801B64283DD828688001F7D4D4E90701CA
:10194000084347F6C07292FAA2F2616AB2FA82F2D2
:101950009140A26A4FF0FF3303EB52024FF4403341
:1019600093FAA3F3B3FA83F39A40114308434FF079
:10197000706292FAA2F2E16AB2FA82F291400843EE
:10198000114900E01BE0091F0860C7F860B0FFF7CD
:101990001DFD044604E0FFF719FD001B642808D86C
:1019A00028688001F7D50AE0FFF710FD001B6428C6
:1019B00002D90320BDE8F88F28688001F4D4002004
:1019C000F8E70120F6E7000008380240003802403E
:1019D00000004742800E474200700040704710B53B
:1019E000401EB0F1807F01D3012010BD4FF0E024F4
:1019F00060610F21601700F073F80020A0610720DC
:101A00002061002010BD10B5FFF7E8FF10BDFEE714
:101A1000054810B54468006880F30888FFF7AEFAFF
:101A2000A446BDE810406047003000080F4810B5DC
:101A30000D4901600921416000214FF400228160BD
:101A4000C0E903124FF44012C0E90521C1610162EF
:101A500041628162C162FEF797FF002803D0BDE8B2
:101A60001040FEF7F2BC10BD00640040740400207A
:101A700030B587B014216846FEF7EAFB154800240C
:101A8000016841F080010160016801F08001059169
:101A9000016841F001010160016801F00101059157
:101AA000016841F00201016000680B4D00F0020086
:101AB0000590002230212846FFF782FC302000905C
:101AC0000120CDE90104694628460394FFF78EFB07
:101AD00007B030BD3038024000040240FEE77047D6
:101AE0000907090E002806DA00F00F0000F1E020D7
:101AF00080F8141D704700F1E02080F80014704752
:101B0000FFF71CBD70477047704710B5FFF764FCC6
:101B1000BDE81040FFF777BF10B592B0302168469E
:101B2000FEF796FB14210CA8FEF792FB0120009013
:101B3000019002248005CDE9064008200890F0209D
:101B4000CDE9090404200B906846FFF7CFFD0F2074
:101B5000CDE90C0400200E904FF4A0500F90E0024D
:101B6000109003210CA8FFF7F7FC12B010BD000085
:101B70000D48016841F0010101600B4A0021083263
:101B800011600268094B1A400260031D084A1A607E
:101B9000026822F48022026003480C30016005498B
:101BA000580608607047000000380240FFFFF6FE4C
:101BB0001030002408ED00E008498A6808490B6BE2
:101BC0005A600B6B08221A610B6B04229A60096B36
:101BD000087501210248FFF7F3B80000000000205B
:101BE00074040020FEE702E008C8121F08C1002AA2
:101BF000FAD170477047002001E001C1121F002A8E
:101C0000FBD17047254D8AB0686800680024C0B2D7
:101C10002870FF2800D12C70287800F5F060A860AB
:101C2000FFF7E2FBFFF778FFFFF722FFFFF7FEFE6B
:101C30001C481B4901631C3141630120CDE906406A
:101C400003940494059408900990009401940294DC
:101C500069461448FEF70AFD134C01222021204654
:101C6000FFF7AEFB012210212046FFF7A9FB002160
:101C70000C48FEF785FF4FF4FA70FFF799F9002240
:101C800020212046FFF79CFB002210212046FFF771
:101C900097FBA87808B9FFF7BBFEFEE7000000201D
:101CA0002000002074040020000402400000000016
:101CB000963007772C610EEEBA51099919C46D0759
:101CC0008FF46A7035A563E9A395649E3288DB0EB4
:101CD000A4B8DC791EE9D5E088D9D2972B4CB60997
:101CE000BD7CB17E072DB8E7911DBF906410B71D74
:101CF000F220B06A4871B9F3DE41BE847DD4DA1AAD
:101D0000EBE4DD6D51B5D4F4C785D38356986C13DD
:101D1000C0A86B647AF962FDECC9658A4F5C011456
:101D2000D96C0663633D0FFAF50D088DC8206E3B34
:101D30005E10694CE44160D5727167A2D1E4033C46
:101D400047D4044BFD850DD26BB50AA5FAA8B5356D
:101D50006C98B242D6C9BBDB40F9BCACE36CD8325C
:101D6000755CDF45CF0DD6DC593DD1ABAC30D92603
:101D70003A00DE518051D7C81661D0BFB5F4B42106
:101D800023C4B3569995BACF0FA5BDB89EB8022803
:101D90000888055FB2D90CC624E90BB1877C6F2F88
:101DA000114C6858AB1D61C13D2D66B69041DC7683
:101DB0000671DB01BC20D2982A10D5EF8985B1715C
:101DC0001FB5B606A5E4BF9F33D4B8E8A2C907780B
:101DD00034F9000F8EA8099618980EE1BB0D6A7FA2
:101DE0002D3D6D08976C6491015C63E6F4516B6B5B
:101DF00062616C1CD83065854E0062F2ED95066C10
:101E00007BA5011BC1F4088257C40FF5C6D9B06584
:101E100050E9B712EAB8BE8B7C88B9FCDF1DDD62E1
:101E2000492DDA15F37CD38C654CD4FB5861B24D47
:101E3000CE51B53A7400BCA3E230BBD441A5DF4A11
:101E4000D795D83D6DC4D1A4FBF4D6D36AE96943D4
:101E5000FCD96E34468867ADD0B860DA732D04447F
:101E6000E51D03335F4C0AAAC97C0DDD3C710550AA
:101E7000AA41022710100BBE86200CC925B5685751
:101E8000B3856F2009D466B99FE461CE0EF9DE5E9A
:101E900098C9D9292298D0B0B4A8D7C7173DB3594B
:101EA000810DB42E3B5CBDB7AD6CBAC02083B8EDDC
:101EB000B6B3BF9A0CE2B6039AD2B1743947D5EAE9
:101EC000AF77D29D1526DB048316DC73120B63E318
:101ED000843B64943E6A6D0DA85A6A7A0BCF0EE477
:101EE0009DFF099327AE000AB19E077D44930FF032
:101EF000D2A3088768F2011EFEC206695D5762F729
:101F0000CB67658071366C19E7066B6E761BD4FE65
:101F1000E02BD3895A7ADA10CC4ADD676FDFB9F942
:101F2000F9EFBE8E43BEB717D58EB060E8A3D6D604
:101F30007E93D1A1C4C2D83852F2DF4FF167BBD132
:101F40006757BCA6DD06B53F4B36B248DA2B0DD835
:101F50004C1B0AAFF64A0336607A0441C3EF60DFD8
:101F600055DF67A8EF8E6E3179BE69468CB361CBC1
:101F70001A8366BCA0D26F2536E2685295770CCCE6
:101F800003470BBBB91602222F260555BE3BBAC527
:101F9000280BBDB2925AB42B046AB35CA7FFD7C218
:101FA00031CFD0B58B9ED92C1DAEDE5BB0C2649B09
:101FB00026F263EC9CA36A750A936D02A906099C3C
:101FC0003F360EEB8567077213570005824ABF95AF
:101FD000147AB8E2AE2BB17B381BB60C9B8ED29232
:101FE0000DBED5E5B7EFDC7C21DFDB0BD4D2D38689
:101FF00042E2D4F1F8B3DD686E83DA1FCD16BE81FC
:102000005B26B9F6E177B06F7747B718E65A0888CC
:10201000706A0FFFCA3B06665C0B0111FF9E658F5D
:1020200069AE62F8D3FF6B6145CF6C1678E20AA007
:10203000EED20DD75483044EC2B30339612667A78D
:10204000F71660D04D476949DB776E3E4A6AD1AEDC
:10205000DC5AD6D9660BDF40F03BD83753AEBCA96B
:10206000C59EBBDE7FCFB247E9FFB5301CF2BDBDD8
:102070008AC2BACA3093B353A6A3B4240536D0BAE1
:102080009306D7CD2957DE54BF67D9232E7A66B37E
:10209000B84A61C4021B685D942B6F2A37BE0BB42B
:1020A000A18E0CC31BDF055A8DEF022D000000002E
:1020B000000000000102030406070809DC200008F4
:1020C0000000002020000000E61B0008FC200008A3
:1020D00020000020B8080000F61B000800000000E7
:1020E000FC2F0008000000000000000000000000BD
:0C20F00000000000000000000024F400CC
:040000050800018569
:00000001FF
