:020000040800F2
:10000000800C00209D010008A5010008A701000840
:10001000A9010008AB010008AD01000800000000C4
:10002000000000000000000000000000AF01000818
:10003000B101000800000000B30100084D180008DD
:10004000B7010008B7010008B7010008B7010008B0
:10005000B7010008B7010008B7010008B7010008A0
:10006000B7010008B7010008B7010008B701000890
:10007000B7010008B7010008B7010008B701000880
:10008000B7010008B7010008B7010008B701000870
:10009000B7010008B7010008B7010008B701000860
:1000A000B7010008B7010008B7010008B701000850
:1000B000B7010008B7010008B7010008B701000840
:1000C000B7010008B7010008B7010008B701000830
:1000D000B7010008B7010008B7010008B701000820
:1000E000B7010008B7010008B7010008B701000810
:1000F000B7010008B7010008B7010008B701000800
:10010000B7010008B7010008B7010008B7010008EF
:10011000B7010008B7010008B7010008B7010008DF
:10012000B7010008B7010008B7010008B7010008CF
:10013000B7010008B7010008B7010008F102000884
:10014000CD020008D9020008E5020008B701000846
:10015000B7010008B7010008B7010008B70100089F
:10016000B7010008B7010008B7010008B70100088F
:10017000B7010008B7010008B7010008000000003F
:10018000B7010008B7010008DFF80CD000F08CF8C8
:10019000004800479D190008800C00200648804751
:1001A00006480047FEE7FEE7FEE7FEE7FEE7FEE75C
:1001B000FEE7FEE7FEE7FEE7D51800088901000824
:1001C0002DE9F05F0546002092469B46884606468C
:1001D000814640241BE0284641464746224600F01F
:1001E00053F853465A46C01A914110D31146184647
:1001F000224600F03AF82D1A67EB01084F462246D6
:100200000120002100F031F817EB00094E41201EBB
:10021000A4F10104DFDC484631462A464346BDE8E6
:10022000F09F40EA01039B0703D009E008C9121FB1
:1002300008C0042AFAD203E011F8013B00F8013BA0
:10024000521EF9D27047D2B201E000F8012B491ECC
:10025000FBD270470022F6E710B513460A46044663
:100260001946FFF7F0FF204610BD202A04DB203A94
:1002700000FA02F1002070479140C2F1200320FAF9
:1002800003F3194390407047202A04DB203A21FAF7
:1002900002F00021704721FA02F3D040C2F120029F
:1002A0009140084319467047064C074D06E0E06848
:1002B00040F0010394E8070098471034AC42F6D3AD
:1002C000FFF766FF041E0008241E0008014800F026
:1002D000A6BA000034080020014800F0A0BA0000CF
:1002E00034080020014800F09ABA000034080020C9
:1002F000014800F094BA00003408002010B54FF017
:10030000FF32074C08E010F8013B5340DBB2491EB6
:1003100054F8233083EA12220029F4D1D04310BDCF
:10032000F419000870470000002229B101291AD0F1
:1003300002291BD04FF440720E490B6823F440731E
:100340000B600B6813430B600A6822F0F8020A6026
:100350000A68022303EBC00002430A60086840F405
:100360008030086070474FF48072E5E74FF4007208
:10037000E2E70000103C02401348016889050FD5F0
:10038000016821F400710160016841F400610160BD
:10039000016821F400610160016841F400710160AD
:1003A000016849050FD5016821F480610160016889
:1003B00041F480510160016821F4805101600168BD
:1003C00041F4806101607047003C024008490A68BE
:1003D00022F440720A600A6842F004020A600A6865
:1003E0004FF4803343EA002002430A607047000064
:1003F000103C0240064A136823F4407313601368EC
:100400001360136843F0010313600170704700002C
:10041000103C0240084910B50C6824F440740C608C
:100420000C6844F440740C600C6844F001040C60E7
:100430000260436010BD0000103C0240074A136890
:1004400023F440731360136843F4807313601368DC
:1004500043F001031360018070470000103C02402C
:10046000074A136823F440731360136843F400735E
:100470001360136843F001031360016070470000CC
:10048000103C024017490868C206174805D5C269E2
:1004900042F01002C26110220A600A68920605D575
:1004A000C26942F00802C26120220A600A6852064C
:1004B00005D5C26942F00402C26140220A600A689E
:1004C000120605D5C26942F00202C26180220A60AA
:1004D0000A68920705D5C26942F02002C261022073
:1004E000086070470C3C02405C08002070B5114960
:1004F00004460020C86100F01FFE05460E4E09E0CC
:10050000601C07D024B100F017FE401BA04201D9A7
:10051000032070BD3068C003F2D43068C00701D03A
:1005200001203060306810F0F200F2D0FFF7AAFF2F
:10053000012070BD5C0800200C3C024090F8202097
:10054000012A07D0022A05D0416A41F48021416284
:1005500001207047006842690A43426100207047E9
:10056000F0B590F820500468A468012D05D0022D44
:1005700003D0416A41F4802153E014F0406F01D16F
:10058000E5004BD5C4F30164022C03D9416A41F460
:10059000000146E00125A5401D608B684FF4C07541
:1005A0009BB1CE6833434E6843EAC603066805EB49
:1005B0000417F3514FF4C273076803EB04130E6979
:1005C000FE50097D012905D009E00E88CB6843EA79
:1005D0004653EBE70168CE5846F48076CE50117949
:1005E000D2F805304FF4C67641EA0323016806EBE2
:1005F00004168B511178D2F801204FF4C47341EAEC
:100600000221026803EB0413D150006805EB0411CA
:10061000425842F0010242500020F0BD416A41F4CC
:10062000001141620120F0BD10B590F82020012A90
:1006300007D0022A05D0416A41F48021416201209D
:1006400010BD3B48D0F8002242F00102C0F8002261
:10065000D0F8002222F47C52C0F80022D0F8002208
:100660004B6A42EA0322C0F800220A7D02F01F030F
:1006700001229A40D0F81C329343C0F81C32CB6957
:10068000B3B9D0F80C329343C0F80C328C894B6864
:1006900064F31F434C6900EBC404C4F840320C8976
:1006A0000B6864F31F434C6900EBC404C4F8443284
:1006B000CB69012B16D1D0F80C321343C0F80C32A1
:1006C0000C884B6864F31F434C6900EBC404C4F806
:1006D00040320C89CB6864F31F434C6900EBC404BF
:1006E000C4F844328B69002BD0F804320ED0134387
:1006F000C0F804320B69002BD0F8143208D0134331
:10070000C0F81432096A012904D008E09343EFE7E6
:100710009343F5E7D0F81C121143C0F81C12D0F82F
:10072000001221F00101C0F80012002010BD0000ED
:1007300000640040704730B590F82040012C05D08F
:10074000022C03D0416A41F480215DE00468002955
:1007500055D02469A40754D04FF4D874056804EB2D
:1007600001142D5915F00405956005682D594ED0DA
:10077000ED08556005682C59C4F34004D4604FF46B
:10078000DA74056804EB01142D5905F00F051561A5
:1007900005682D59C5F30725956105682C59240C6A
:1007A00054614FF4DC72046802EB0112A4581C700F
:1007B0000468A458240A5C700468A458240C9C7033
:1007C0000468A258120EDA704FF4DE72046802EB6D
:1007D0000112A4581C710468A458240A5C710468AE
:1007E000A458240C9C710468A258120EDA71006897
:1007F00081B1016941F020010161002030BDE46850
:10080000A8E7416A41F400114162012030BD6D0D3D
:100810001560AFE7C16841F02001C160EDE72DE947
:10082000F05F0546006800244669D0F804908768A8
:10083000D0F80CB0D0F810A0D0F81880F10748D04C
:10084000F90714D001218160B80703D5284600F0CC
:10085000AAFA0CE0780702D54FF4006407E03807E5
:1008600002D54FF4805402E0284600F09BFAF805C8
:1008700016D529684FF480708860B80503D52846DE
:1008800000F093FA0CE0780502D544F4005407E038
:10089000380502D544F4804402E0284600F084FA8A
:1008A000F80316D529684FF480308860B80303D563
:1008B000284600F07CFA0CE0780302D544F40044AA
:1008C00007E0380302D544F4803402E0284600F003
:1008D0006DFA300707D55FEACB6004D52968102090
:1008E00044F40074C86070074FF0080707D55FEA4A
:1008F0000B7004D52868C760284600F079F9B00766
:1009000006D52868C068800702D0284600F072F932
:10091000700607D55FEACA6004D52968102044F440
:1009200080640861B00607D55FEA0A7004D52868BC
:100930000761284600F008FAF00606D52868006925
:10094000800702D0284600F000FAB00308D55FEA1D
:10095000C96005D5296810204860284600F0F6F9DE
:10096000F00307D55FEA097004D528684760284678
:1009700000F01EFA300446D55FEA497040D5F00514
:1009800004D55FEAC87001D044F00104B00504D575
:100990005FEA887001D544F00204700504D55FEA6F
:1009A000487001D544F00404300529D518F0700FC3
:1009B00026D008F07000402815D006DC102809D099
:1009C00020280AD0302816D10AE050280ED06028FE
:1009D00011D10EE044F008040DE044F010040AE0E8
:1009E00044F0200407E044F0400404E044F08004B4
:1009F00001E044F480742868816921F0700181610C
:100A0000296804204860002C05D0686A2043686289
:100A10002846FFF78FFEBDE8F09F70B5040003D0B5
:100A200094F8200010B104E0012070BD204600F0D1
:100A300081F82068016821F00201016000F07CFB70
:100A40000546052604E000F077FB401B0A2811D874
:100A5000206840688007F6D42068016841F00101F1
:100A6000016000F069FB05460BE000F065FB401BF0
:100A70000A2806D9606A40F40030606284F8206079
:100A8000D2E720684068C007EFD0207E01282068A8
:100A900001683DD021F080010160607E012820685E
:100AA000016838D021F040010160A07E0128206853
:100AB000016833D021F020010160E07E0128206828
:100AC00001682ED041F010010160207F01282068CC
:100AD000016829D021F008010160607F01282068A9
:100AE000016824D021F004010160D4E90201084327
:100AF000D4E90412114308436168491E0843216880
:100B0000C86100206062012084F82000002070BDD0
:100B100041F08001C0E741F04001C5E741F020010C
:100B2000CAE721F01001CFE741F00801D4E741F016
:100B30000401D9E710B586B0044614216846FFF7D2
:100B400089FB28492068884249D12748002102684A
:100B500042F080620260026802F0806205920268E0
:100B600042F000720260006800F0007005901E48BC
:100B70001038026842F002020260006800F00200D1
:100B800005904FF4405000900220CDE90101032070
:100B90000390092004906946144800F0E1F900220E
:100BA00005213F2000F04CFB3F2000F03CFB0022E1
:100BB0000521402000F044FB402000F034FB0022DF
:100BC0000521412000F03CFB412000F02CFB0022DD
:100BD0000521422000F034FB422000F024FB06B047
:100BE00010BD000000680040403802400004024090
:100BF000704700002DE9F0418AB040F28E750395F0
:100C0000002404210495CDE90514082102940791DC
:100C1000019401AB03AA2146FFF78DFD0498A84279
:100C200002D00398A84213D1444D687801264FF4AE
:100C3000006802280FD09DF80400012867D0022820
:100C40006AD0032804D1012000F06EFE00F090FD70
:100C50000AB0BDE8F0813A4F079A686801A93844A4
:100C6000FFF7DFFA079869680844686068684045DC
:100C7000EED13F2000F0C6FA402000F0C3FA412038
:100C800000F0C0FA422000F0BDFA41463846FFF7B6
:100C900035FBE860A968884237D12878402834D8E5
:100CA0002021284800F03CFA00F044F9A7F1140094
:100CB0000094046029784FF0006202EBC121C0E982
:100CC0000216694600F0A2F8002428783A5904EB8D
:100CD000C0210023022001F1006100F0EDF8241D85
:100CE0004445F2DB00F0DEF8012000F01DFE6E70DE
:100CF0003F2000F098FA402000F095FA412000F0E3
:100D000092FA422000F08FFAA2E70220EDE76E701F
:100D1000012000F009FE9BE76878012898D1414640
:100D20000748FFF797FADDF80600A8609DF8050070
:100D300008302870022068706C6089E7000000208D
:100D400034000020000C024070477047704770B5B7
:100D5000044690F82000012804D0606A40F4002086
:100D6000606217E0022084F820002068016821F00A
:100D70000101016000F0E0F905460DE000F0DCF94A
:100D8000401B0A2808D9606A40F4003060620520E0
:100D900084F82000012070BD20684068C007EDD1B4
:100DA000606270BD7047704770477047704770470A
:100DB000704700000B4A10B54FF0FF301060002163
:100DC0001160121D10601160064A103A1060116027
:100DD000121D10601160121D1060116000F0F4F916
:100DE000002010BD2038024070B5044600F0A4F980
:100DF0000546601C02D004480078044400F09CF9C9
:100E0000401BA042FAD370BD100000202DE9F0472E
:100E1000044622480E46017E01290AD0012180465F
:100E200001764CF250394846FFF760FB020003D0D0
:100E30002FE00220BDE8F0874FF0FF3030602068DF
:100E4000174F012801D0A5681CE0207C6168FFF7DE
:100E5000BDFA4846FFF74AFB0246386820F0040016
:100E6000386014E0217C2846FFF75EFA4846FFF719
:100E70003DFB0200386820F0FA00386001D0356090
:100E800005E06D1CD4E902100844A842EAD8FFF737
:100E900073FA002188F818101046CBE75C08002090
:100EA000103C02400348016841F00041016000200D
:100EB00070470000103C02402DE9F0471B4E0546EC
:100EC0001446307E1F468946012808D0012030761E
:100ED0004CF250384046FFF709FB18B114E00220ED
:100EE000BDE8F0879DB1012D16D0022D19D0224604
:100EF0003B464846FFF78EFA4046FFF7F7FA0C49A3
:100F00000A6822F001020A6000213176E8E7E1B2C6
:100F10004846FFF76FFAEFE7A1B24846FFF78EFAAF
:100F2000EAE721464846FFF79BFAE5E75C08002020
:100F3000103C0240074900200A68002A09DA054AE5
:100F4000054B0C3A1360054B13600968002900DA61
:100F500001207047103C024023016745AB89EFCD6B
:100F60002DE9F84FDFF88C91002209F1040A0AF10B
:100F7000040B4FF00F080BF1040E01260B6896408E
:100F80003340B34271D14C68022C01D0122C11D1E4
:100F9000D40800EB84073D6A5407E40E08FA04FC09
:100FA00025EA0C05D1F810C00CFA04FC4CEA050C3B
:100FB000C7F820C007685400032591F804C0A54075
:100FC0000CF0030CAF430CFA04FC4CEA070CC0F81D
:100FD00000C04F68012F05D0022F03D0112F01D080
:100FE000122F11D18768D1F80CC0AF430CFA04FC62
:100FF0004CEA070CC0F808C04768B7430E79C6F33F
:10100000001696403E434660C668AE438D68A540D4
:101010003543C5604C68E40065D5374C256845F418
:1010200080452560246822F0030504F48044009480
:10103000324C2E19D6F808789407250F08FA05F4D3
:10104000A7432F4CA04201D1002424E02D4CA04204
:1010500001D101241FE02C4CA04201D102241AE04E
:101060002A4CA04202D1032415E03CE0284CA042C7
:1010700001D104240FE0274CA04201D105240AE04D
:10108000254CA04201D1062405E0244CA04201D108
:10109000072400E00824AC403C43C6F80848D9F8CF
:1010A00000404D464E689C43F60300D51C432C601F
:1010B000DAF8004055464E689C43B60300D51C4301
:1010C0002C60DBF800405D464E689C43F60200D57C
:1010D0001C432C60DEF8004075464E689C43B60207
:1010E00000D51C432C60521C102AFFF446AFBDE80B
:1010F000F88F0000003C01404438024000300140BD
:10110000000002400004024000080240000C0240BF
:10111000001002400014024000180240001C02406F
:10112000426931EA020200D10904816170470AB1C3
:10113000816170470904FBE701488068704700003F
:1011400010000020024881680278114481607047D5
:10115000100000200B4810B5016841F400710160D7
:10116000016841F480610160016841F480710160AF
:10117000032000F085F80F2000F006F800F026F8B4
:10118000002010BD003C024070B50D4D04464FF4E8
:101190007A712878B1FBF0F00A490968B1FBF0F0E8
:1011A00000F0D2FA48B9102C07D200222146501E76
:1011B00000F046F800206C6070BD012070BD00009A
:1011C000100000201C000020704700000C4882B076
:1011D000016841F480410160006800F480400090A3
:1011E0000748001F016841F080510160006800223B
:1011F00000F0805000900F21901E02B000F020B847
:101200004438024000280DDB00F01F02012191400C
:101210004009800000F1E020C0F88011BFF34F8F3B
:10122000BFF36F8F7047002809DB00F01F02012118
:1012300091404009800000F1E020C0F800117047A3
:10124000F0B40E4B1B68C3F30223C3F10704042C54
:1012500000D904241D1D072D01D2002300E0DB1E50
:10126000012606FA04F56D1E0D409D409E40761E37
:10127000164045EA0601F0BC00F070BB0CED00E042
:10128000064A00F0070110684FF6FF03184040EAD5
:101290000120034908431060704700000CED00E096
:1012A0000000FA052DE9F0470D46040065D0DFF88F
:1012B0001491D9F80000EFB200F00F00A84207D255
:1012C00089F80070D9F8000000F00F00A84254D14E
:1012D00020683D4E810712D5400703D5306840F4A1
:1012E000E05030602078000703D5306840F460405B
:1012F00030603068A16820F0F0000843306020784A
:10130000C0072DD0304960680839012812D0022862
:1013100013D0032811D00968890700292DDA316814
:1013200021F0030101433160FFF706FF804641F2DF
:10133000883A0EE009688903EFE709688901ECE75C
:10134000FFF7FAFEA0EB0801514502D90320BDE8E2
:10135000F0873068616800F00C00B0EB810FEFD1CE
:10136000D9F80010484601F00F01A94207D90770CB
:10137000006800F00F00A84201D00120E7E72078C4
:10138000400705D53068E16820F4E050084330603C
:101390002078000706D53068216920F4604040EAD3
:1013A000C100306000F016F83168084AC1F303113B
:1013B000515CC840064908600F20FFF7E5FE002099
:1013C000C5E70000003C024008380240F41D000858
:1013D0001C000020154810B5006810F00C011448DE
:1013E00013D0431004290FD008290ED10F4C241F0D
:1013F000216801F03F022168490207D52068C0F347
:101400008810A0FB030106E0184610BD2168C1F357
:101410008811A1FB00010023FEF7D2FE2168C1F371
:101420000141491C4900B0FBF1F010BD08380240F1
:101430000024F4002DE9F84F040073D02078BD4D4E
:10144000C00748D0BB4808300168C1F381010129B9
:1014500008D00068C0F3810002280AD1281D006866
:10146000400206D52868800335D560680028E4D09E
:1014700031E06068B0F5803F10D0B0F5A02F28684B
:1014800010D020F480302860286820F48020286064
:101490006068A0B1FFF750FE06460CE0286840F4F3
:1014A0008030F4E740F480202860F7E7FFF744FE3F
:1014B000801B642872D828688003F7D50BE0FFF7FB
:1014C0003BFE064604E0FFF737FE801B6428F1D898
:1014D00028688003F7D42078DFF85C9280074FF00B
:1014E000000A3ED593480830016811F00C0F09D06E
:1014F0000068C0F3810002280BD18E48001D0068EF
:10150000400206D42868800715D5E068012809D173
:1015100011E0E068B8B10120C9F80000FFF70CFE47
:10152000064605E003E1FFF707FE801B0228C1D84D
:1015300028688007F7D52868216920F0F80040EA7C
:10154000C10028600DE0C9F800A0FFF7F5FD0646D0
:1015500004E0FFF7F1FD801B02281FD828688007F0
:10156000F7D42078000722D5724F74496069743728
:1015700070B101200860FFF7DFFD064604E0FFF7C9
:10158000DBFD801B022809D838688007F7D50EE0FC
:10159000C1F800A0FFF7D0FD064605E081E0FFF7A7
:1015A000CBFD801B02287CD838688007F7D42078D0
:1015B000400769D5DFF87CB14FF000080BF1400B14
:1015C000DBF80000C0000CD4DBF8001041F08051C3
:1015D000CBF80010DBF800004FF0010800F080505D
:1015E0000090574F3868C0050FD4386840F48070B9
:1015F0003860FFF7A1FD064604E0FFF79DFD801B64
:1016000002284ED83868C005F7D54A4FA068703711
:1016100001280FD00528386810D020F0010038606C
:10162000386820F004003860A068B0B1FFF784FD8E
:1016300006460EE0386840F00100F4E740F0040090
:101640003860F7E7FFF778FD811B41F2883081426F
:1016500065D838688007F5D50DE0FFF76DFD0646C3
:1016600006E0FFF769FD811B41F28830814256D8C0
:1016700038688007F5D4B8F1000F05D0DBF800100A
:1016800021F08051CBF80010A069C8B32949083176
:101690000968C1F38101022949D00228504607D0C8
:1016A00000E03CE0C9F86000FFF746FD044639E081
:1016B0004F46C9F86000FFF73FFD064604E0FFF71C
:1016C0003BFD801B02282AD828688001F7D4D4E982
:1016D00007010843A16A1B4A490802EB0141626AFB
:1016E00041EA8211084394F82C1040EA0161114844
:1016F000001D016001203866FFF71EFD044605E06D
:1017000013E0FFF719FD001B022808D828688001A4
:10171000F7D50AE0FFF710FD001B022802D90320CD
:10172000BDE8F88F28688001F4D40020F8E7012094
:10173000F6E700000038024000004742800E4742B2
:10174000007000400000FFFF10B5401EB0F1807F28
:1017500001D3012010BD4FF0E02460610F2160171C
:1017600000F0FCF80020A06107202061002010BDDF
:10177000054810B54468006880F30888FFF71AFB35
:10178000A446BDE810406047002000080F4810B58F
:101790000D4901601521416000214FF480228160D4
:1017A000C0E9031292004261017641768176C176EA
:1017B00001774177FFF731F9002803D0BDE81040E9
:1017C000FEF7B0BD10BD00000068004034080020E6
:1017D00030B587B014216846FEF73CFD1948002457
:1017E000016841F080010160016801F0800105910C
:1017F000016841F002010160016801F002010591F8
:10180000016841F001010160016801F001010591E9
:10181000016841F00801016000680B4D00F008000C
:101820000590002220212846FFF781FC202000900F
:101830000120CDE90104694628460394FFF790FB97
:1018400007B030BD30380240000C0240FFF77ABCD0
:1018500030B593B030216846FEF7FCFC14210CA88B
:10186000FEF7F8FC19480025016841F0805101603D
:10187000006800F0805011901548016841F48041E3
:1018800001600068022400F4804011900120009063
:10189000000401908001CDE9064004200890A820B2
:1018A000CDE9090407200B906846FFF7C3FD0CA99A
:1018B0000F2081E831004FF4A0500F90E00210900B
:1018C00005210CA8FFF7EEFC13B030BD40380240F4
:1018D000007000401048016841F4700101600F4839
:1018E000016841F0010101600C4A002108321160D9
:1018F00002680B4B1A400260031D0A4A1A60026814
:1019000022F48022026005480C300160024958062A
:10191000803908607047000088ED00E00038024020
:10192000FFFFF6FE1030002400B589B040F28E7142
:101930000191009100210422CDE9022108220492A4
:101940008DF814108DF81800012306AA6946024884
:10195000FEF706FE09B000BD340800200907090E95
:10196000002804DB00F1E02080F80014704700F04C
:101970000F0000F1E02080F8141D704702E008C855
:10198000121F08C1002AFAD170477047002001E0F9
:1019900001C1121F002AFBD1704700008AB0FFF777
:1019A000D9FBFFF755FFFFF713FFFFF7EFFE00200E
:1019B0000121CDE906010390099105900090019065
:1019C00002900891049069460948FEF72DFE0848E8
:1019D000FFF7BDF902210648FEF7B0FD4FF4FA709B
:1019E000FFF702FA0120FFF79FFF6420F8E70000ED
:1019F0003408002000000000963007772C610EEEBE
:101A0000BA51099919C46D078FF46A7035A563E955
:101A1000A395649E3288DB0EA4B8DC791EE9D5E07C
:101A200088D9D2972B4CB609BD7CB17E072DB8E77B
:101A3000911DBF906410B71DF220B06A4871B9F3D0
:101A4000DE41BE847DD4DA1AEBE4DD6D51B5D4F409
:101A5000C785D38356986C13C0A86B647AF962FD6E
:101A6000ECC9658A4F5C0114D96C0663633D0FFABB
:101A7000F50D088DC8206E3B5E10694CE44160D5C1
:101A8000727167A2D1E4033C47D4044BFD850DD2AB
:101A90006BB50AA5FAA8B5356C98B242D6C9BBDBBE
:101AA00040F9BCACE36CD832755CDF45CF0DD6DCB9
:101AB000593DD1ABAC30D9263A00DE518051D7C860
:101AC0001661D0BFB5F4B42123C4B3569995BACFEB
:101AD0000FA5BDB89EB802280888055FB2D90CC60C
:101AE00024E90BB1877C6F2F114C6858AB1D61C185
:101AF0003D2D66B69041DC760671DB01BC20D298A4
:101B00002A10D5EF8985B1711FB5B606A5E4BF9F30
:101B100033D4B8E8A2C9077834F9000F8EA8099623
:101B200018980EE1BB0D6A7F2D3D6D08976C64918E
:101B3000015C63E6F4516B6B62616C1CD8306585A7
:101B40004E0062F2ED95066C7BA5011BC1F4088284
:101B500057C40FF5C6D9B06550E9B712EAB8BE8BC5
:101B60007C88B9FCDF1DDD62492DDA15F37CD38C4E
:101B7000654CD4FB5861B24DCE51B53A7400BCA34C
:101B8000E230BBD441A5DF4AD795D83D6DC4D1A47E
:101B9000FBF4D6D36AE96943FCD96E34468867AD55
:101BA000D0B860DA732D0444E51D03335F4C0AAAF4
:101BB000C97C0DDD3C710550AA41022710100BBEF7
:101BC00086200CC925B56857B3856F2009D466B93E
:101BD0009FE461CE0EF9DE5E98C9D9292298D0B073
:101BE000B4A8D7C7173DB359810DB42E3B5CBDB720
:101BF000AD6CBAC02083B8EDB6B3BF9A0CE2B603A1
:101C00009AD2B1743947D5EAAF77D29D1526DB0455
:101C10008316DC73120B63E3843B64943E6A6D0DA0
:101C2000A85A6A7A0BCF0EE49DFF099327AE000AEB
:101C3000B19E077D44930FF0D2A3088768F2011E7E
:101C4000FEC206695D5762F7CB67658071366C1915
:101C5000E7066B6E761BD4FEE02BD3895A7ADA1036
:101C6000CC4ADD676FDFB9F9F9EFBE8E43BEB71717
:101C7000D58EB060E8A3D6D67E93D1A1C4C2D838A1
:101C800052F2DF4FF167BBD16757BCA6DD06B53F07
:101C90004B36B248DA2B0DD84C1B0AAFF64A033646
:101CA000607A0441C3EF60DF55DF67A8EF8E6E31C5
:101CB00079BE69468CB361CB1A8366BCA0D26F250E
:101CC00036E2685295770CCC03470BBBB91602225B
:101CD0002F260555BE3BBAC5280BBDB2925AB42B70
:101CE000046AB35CA7FFD7C231CFD0B58B9ED92C85
:101CF0001DAEDE5BB0C2649B26F263EC9CA36A75EA
:101D00000A936D02A906099C3F360EEB85670772A0
:101D100013570005824ABF95147AB8E2AE2BB17B07
:101D2000381BB60C9B8ED2920DBED5E5B7EFDC7C8E
:101D300021DFDB0BD4D2D38642E2D4F1F8B3DD68E5
:101D40006E83DA1FCD16BE815B26B9F6E177B06FE0
:101D50007747B718E65A0888706A0FFFCA3B0666CD
:101D60005C0B0111FF9E658F69AE62F8D3FF6B615A
:101D700045CF6C1678E20AA0EED20DD75483044EFC
:101D8000C2B30339612667A7F71660D04D4769498A
:101D9000DB776E3E4A6AD1AEDC5AD6D9660BDF409D
:101DA000F03BD83753AEBCA9C59EBBDE7FCFB24750
:101DB000E9FFB5301CF2BDBD8AC2BACA3093B35335
:101DC000A6A3B4240536D0BA9306D7CD2957DE543E
:101DD000BF67D9232E7A66B3B84A61C4021B685D17
:101DE000942B6F2A37BE0BB4A18E0CC31BDF055A90
:101DF0008DEF022D0000000000000000010203042E
:101E000006070809241E000800000020200000002A
:101E10007C190008441E000820000020600C00000F
:101E20008C19000800000000000000000000000005
:101E30000000000001000000100000000000000091
:041E40000024F40086
:040000050800018965
:00000001FF
