:020000040800F2
:10000000D808002001010008A717000803170008FE
:10001000A5170008B1010008C11800080000000081
:1000200000000000000000000000000013010008B4
:10003000210300080000000017010008C91700088C
:100040001B0100081B0100081B0100081B01000820
:100050001B0100081B0100081B0100081B01000810
:100060001B0100081B0100081B0100081B01000800
:100070001B0100081B0100081B0100081B010008F0
:100080001B0100081B0100081B010008A91800083B
:10009000B5180008B5010008C10100081B010008DF
:1000A0001B0100081B0100081B0100081B010008C0
:1000B0001B0100081B0100081B0100081B010008B0
:1000C0001B0100081B0100081B0100081B010008A0
:1000D0001B0100081B0100081B0100081B01000890
:1000E0001B0100081B0100081B010008DFF80CD0F1
:1000F00000F04CF800480047E5180008D808002038
:100100000648804706480047FEE7FEE7FEE7FEE7B1
:10011000FEE7FEE7FEE7FEE7FEE7FEE74118000820
:10012000ED000008202A04DB203A21FA02F0002129
:10013000704721FA02F3D040C2F1200291400843F7
:100140001946704740EA01039B0703D009E008C93C
:10015000121F08C0042AFAD203E011F8013B00F88C
:10016000013B521EF9D27047D2B201E000F8012BD8
:10017000491EFBD270470022F6E710B513460A4627
:1001800004461946FFF7F0FF204610BD064C074D08
:1001900006E0E06840F0010394E807009847103457
:1001A000AC42F6D3FFF7A6FF581D0008781D0008E3
:1001B000FEE70000014800F0B9B90000700400201B
:1001C000014800F0B3B900007004002010B5002908
:1001D00058D0826B4FF4D873046803EB0113E458D2
:1001E00014F0040494600468E4584DD0E4085460AA
:1001F0000468E35803F00203D3604FF4DA73046831
:1002000003EB0113E45804F00F0414611162046855
:10021000E358C3F30723D3614FF4DC73046803EBA3
:100220000113E45814750468E458240A54750468EA
:10023000E458240C94750468E3581B0ED3754FF4EE
:10024000DE73046803EB0113E45814760468E45881
:10025000240A54760468E458240C94760468E3581D
:100260001B0ED3760368202289B11A610268536994
:1002700023F05003536190F83C20222A0DD0322AFB
:100280000BD00FE0426BA5E7640D1460B0E7DA60B5
:100290000268536923F00A03ECE70268536923F408
:1002A0000F43536112220123002990F83C1006D01D
:1002B000522915D0622916D0722906D115E042299B
:1002C0000ED0622908D0722908D080F83C3000BFD7
:1002D00000F082FB002010BD322107E0522105E032
:1002E00080F83C20F4E7222100E0422180F83C1015
:1002F000EEE7000010B54FF0FF32084B09E000BFF9
:1003000010F8014B5440E4B2491E53F8244084EAEB
:1003100012220029F4D1D04310BD00004819000872
:100320007047000006490020C8610648016941F095
:1003300004010161016941F0400101617047000061
:10034000B804002000200240064A0021D16106497D
:100350000A6942F002020A614861086940F04000FF
:1003600008617047B804002000200240044B0022BE
:10037000DA61044A136943F0010313610180704795
:10038000B80400200020024014480022C168CB06B7
:10039000134904D5CA6942F00202CA611022C36837
:1003A0005B0705D5CB6943F00103CB6142F0040242
:1003B000C369DB0707D0CB6943F00403CB61C16994
:1003C00021F00101C161A2F58071013901D0C26043
:1003D0007047C16921F00101C161704700200240EE
:1003E000B804002070B5054600F034FE0646114CF6
:1003F00009E0681C07D025B100F02CFE801BA84244
:1004000001D9032070BDE068C007F2D1E068800622
:1004100001D52020E060E068C00605D4E069C0078F
:1004200002D1E068400703D5FFF7AEFF012070BDA1
:10043000002070BD00200240F0B50C7D012303FABE
:1004400004F20468D4F800524E6A25F47C5503EB9C
:1004500006231D43C4F800520368D3F81C4294439A
:10046000C3F81C424FF41073CD691C1DBDB905685B
:10047000D5F80C629643C5F80C628E894D684F69B9
:1004800066F31F45066803EBC707F5510E890D6833
:100490004F6966F31F45066804EBC707F551CD6940
:1004A000012D17D10568D5F80C621643C5F80C620A
:1004B0000E884D684F6966F31F45066803EBC70356
:1004C000F5500D89CB684E6965F31F43056804EB51
:1004D000C6042B518B69002B0368D3F8044211D05A
:1004E00054EA0204C3F804420B69002B0368D3F8F2
:1004F000144209D054EA0204C3F81442096A0129DB
:1005000004D009E09443EDE79443F5E70168D1F89E
:100510001C321343C1F81C320068D0F8001221F0DD
:100520000101C0F800120020F0BD70472DE9F04134
:10053000044600680026C168C1F300134169C1F395
:10054000C002102113B10AB14E01C16020680269D6
:100550004369C2F30012C3F380131AB113B146F416
:1005600080660161216848694FF00105C043C007FA
:100570004ED18A687648904323D000208B68754A14
:100580009A4320D000228F68734BBB431DD00023B9
:10059000104318433CD088688A68C0F340008B68D9
:1005A000C2F3402203F001031043184329D04A69E3
:1005B000204622F001024A6194F83C10122906D02C
:1005C0000AE00120DAE70122DDE70123E0E7016824
:1005D0004A6922F40F424A6190F83C10422908D03F
:1005E000522908D0722908D080F83C5000F07EFBD8
:1005F00009E0222102E0322100E0622180F83C1073
:10060000F4E746F4006620688168544A114381602B
:100610002168C868496910F0030FC1F3400104D094
:1006200019B100212046FFF7D1FD21680869496909
:1006300010F0030FC1F3001104D019B101212046BD
:10064000FFF7C4FD206C3043206420688169426953
:1006500011F0010F4369C2F30022C3F3C03305D088
:1006600022B11BB1216C41F0010121648169C1F308
:1006700040034169C1F340224169C1F3C0312BB14C
:1006800022B119B1216C41F0020121648169C1F3E9
:10069000800341694269C1F38021C2F3C0322BB1AA
:1006A00021B11AB1216C41F004012164816911F07A
:1006B000700F08D000224169C1F3C0234169C1F322
:1006C000C03112B121E00122F5E7F3B1E9B181694E
:1006D00001F0700140292FD006DC102909D0202913
:1006E0000BD030290DD123E0502929D0602908D121
:1006F0002AE0216C41F0080102E0216C41F0100178
:100700002164816921F070018161206C00280DD085
:1007100021680420486084F83C502068416948F60C
:100720005B72914341612046FFF7FFFEBDE8F08117
:10073000216C41F02001E3E7216C41F04001DFE74B
:10074000216C41F08001DBE7216C41F48071D7E737
:10075000010000040001000800000110090501006B
:100760002DE9F04104004FF0000504D094F83C005E
:10077000002618B107E00120BDE8F08184F83D6053
:10078000204600F083F8022084F83C0020680168CD
:1007900021F0020101602068016841F0010101605F
:1007A00000F058FC07464FF0030804E000F052FC4C
:1007B000C01B0A2853D820684068C007F6D02168BB
:1007C0004868C00758D0A069012801D145F08005CC
:1007D000E06901282FD025F04000226A012A2DD09F
:1007E00020F02000626A012A2BD020F01000A26ABB
:1007F000012A29D020F00800E26A012A27D020F03F
:1008000004000A6822F0FC0202430A60D4E90201F3
:100810000843D4E90412114308436168491E0843A0
:100820002168C8612068016821F00101016000F0C1
:1008300011FC054618E045F04000CEE740F02000EE
:10084000D0E740F01000D2E740F00800D4E740F0D5
:100850000400D6E700F0FEFB401B0A2804D904F888
:100860003C8F0320667087E720684068C007F1D19D
:1008700020684068C00703D0042084F83C007AE771
:100880002664012084F83C00002075E710B500685C
:10089000214986B088423DD12048C16941F00071AC
:1008A000C161C0691E4C00F0007004904FF40060FC
:1008B00000900020019002906946204600F0ECFA7A
:1008C000A014009002200190032003906946204666
:1008D00000F0E2FA00220521132000F053FC13205F
:1008E00000F045FC00220521142000F04BFC1420F0
:1008F00000F03DFC00220521152000F043FC1520EE
:1009000000F035FC00220521162000F03BFC1620EB
:1009100000F02DFC06B010BD006400400010024045
:100920000008014030B511B1012925D010E090F840
:100930003C20222A28D090F83C20422A24D000BF14
:1009400090F83C20622A1FD090F83C20722A1BD0DD
:1009500090F83D20012A17D0012280F83D20622224
:1009600090F83C40722389B1122C19D0222C18D057
:10097000422C19D0322214E090F83C20322A03D0C5
:1009800090F83C20522ADBD1022030BD122C05D039
:10099000322C06D0522C07D0222202E0422200E064
:1009A000522280F83C2001E080F83C3000220264B2
:1009B00003685C6948F601752C435C6180F83D2052
:1009C00000680029416904D041F0500141610020D4
:1009D00030BD41F00A01F9E72DE9F84F456B80463B
:1009E00040F28E702968814202D0696881426CD1E0
:1009F000484C6078012700264FF4806A022807D00F
:100A0000287D012864D0022867D003287BD175E0B7
:100A1000DFF804912A69636805F1140109EB03000A
:100A2000FFF790FBD8F83400616800690844606003
:100A300060685546A84266D1132000F08DFB142053
:100A400000F08AFB152000F087FB162000F084FBE5
:100A5000A84629464846FFF74DFCE060A168884259
:100A600034D12078402831D800F002FAA9F11000E2
:100A70000096066021784FF0006202EB8121C0E908
:100A80000217694600F056F900254E462078725943
:100A900005EB80210023022001F1006100F0A8F99C
:100AA0002D1D4545F2D300F099F9012000F0ECFE30
:100AB0006770132000F05BFB142000F058FB15203A
:100AC00000F055FB162000F052FB1CE00220EDE781
:100AD0006770012000F0D8FE15E06078012812D17F
:100AE00051460D48FFF747FBD5F81600A060687D1A
:100AF0000830207002206070666004E0012000F081
:100B0000C3FE00F0FFFDBDE8F84F00210348FFF7EA
:100B100009BF0000000000207000002070040020C9
:100B20002DE9F05F0E46016804468868400105D44F
:100B30008868000102D48868C0006FD594F83D0031
:100B400001280CD0012784F83D7094F83C0022283D
:100B500008D0322808D062280ED0122005E00220EA
:100B6000BDE8F09F422000E0522084F83C008868F5
:100B7000400103D5002507E07220F6E788680001F0
:100B800001D5012500E002254FF4C07000EB0510EF
:100B90000A5802F001020A50216B8A68EAB3D4F8BD
:100BA00000C05CF800301343CA68496842EAC101DA
:100BB0000B434CF80030216B0A7C02F00F020A61F3
:100BC0004FF4C271226801EB0511535823F00F0353
:100BD000535022685358D4F830C0DCF810C043EAB0
:100BE0000C035350216B4FF4C47303EB05130A7DC0
:100BF000D1F8151042EA01222168CA50216B4FF446
:100C0000C67303EB05130A7ED1F8191042EA0122DC
:100C10002168CA5021680A5801E00DE05AE042F00C
:100C200001020A5000F016FA81464FF00008DFF882
:100C3000B0A0DFF8B0B026E022681358D1F80CC09D
:100C4000098843EA0C0343EA41511150B3E7701C91
:100C500019D02EB100F0FEF9A0EB0900B04212D974
:100C6000032084F83C004DB1012D09D04FF4000061
:100C70002168886084F83D80032071E78020F7E7D1
:100C80004FF40040F4E7ADB12068012D816816D023
:100C9000154888430028DAD194F83C00422811D046
:100CA000522811D0722813D084F83C7084F83D800B
:100CB000002055E7206881682AEA0100EAE72BEA6C
:100CC0000100E7E7222000E0322084F83C00EDE755
:100CD0006220FAE7042084F83C00012040E700008D
:100CE000010000040001000800000110704700002E
:100CF000064810B54FF0FF31C16000220261C160AB
:100D0000C26000F0E7F9002010BD000000100240B2
:100D100070B5044600F09EF90546601C02D00448F8
:100D20000078044400F096F9401BA042FAD370BD4D
:100D3000100000202DE9F047054626480F46012601
:100D4000017E01290FD00121814601762868DFF854
:100D500088804CF25034022808D0A2462046FFF783
:100D600041FBA8B131E00220BDE8F0872046FFF743
:100D700039FB08BB0120FFF7D5FA2046FFF732FB0D
:100D8000D8F81010064621F00401C8F810101CE035
:100D90004FF0FF303860AC6811E02046FFF7D4FA1E
:100DA0005046FFF71FFBD8F81010060021F0020193
:100DB000C8F8101001D03C6007E004F58064D5E964
:100DC000020100EB8120A042E7D8002189F8181029
:100DD0003046C9E7B80400200020024003480169FA
:100DE00041F08001016100207047000000200240B6
:100DF0002DE9F05F07461C4888460024017E154611
:100E00001E46012909D00121814601764CF2503A53
:100E10005046FFF7E7FA18B122E00220BDE8F09F44
:100E2000012F02D0022F00D00427D346DFF83CA0C8
:100E3000220128463146FFF775F981B208EB4400DC
:100E4000FFF794FA5846FFF7CDFADAF8102022F0AF
:100E50000102CAF8102018B9641CE4B2BC42E7D3FE
:100E6000002289F81820D9E7B804002000200240A9
:100E7000064900200A69120607D5054A4A60054A54
:100E80004A600969090600D5012070470020024028
:100E900023016745AB89EFCD2DE9F84FDFF890A12D
:100EA00000220AF1040B144601274FF00F090BF141
:100EB000040E00BF0B6807FA04F52B40AB4274D157
:100EC000DFF870C14E68A6EB0C0866452BD00DDC30
:100ED000032E34D005DC36B3012E19D0022E2FD1CB
:100EE0001BE0112E16D0122E2AD119E0B8F5881F5A
:100EF00019D006DCB8F5803F15D0B8F5801F1FD19A
:100F000011E0B8F5001F0ED0B8F5041F18D10AE0A3
:100F1000CA6815E0CA68121D12E0CA6808320FE0FC
:100F2000CA680C320CE08A682AB1012A4FF0080224
:100F300003D0456104E0042202E0056100E00022E4
:100F4000FF2B01D8064601E000F104064FEA8405B4
:100F500001D9A5F12005D6F800C009FA05F82CEA58
:100F6000080C02FA05F54CEA050CC6F800C04D68FD
:100F7000ED0057D5304DAE6946F00106AE61AD6962
:100F800024F0030605F0010500952C4D06EB050C39
:100F9000DCF80850A6074FEA167809FA08F6B543B8
:100FA000274EB04202D1002610E03BE0254EB04271
:100FB00001D101260AE0244EB04201D1022605E00B
:100FC000224EB04201D1032600E0042606FA08F6BC
:100FD0002E43CCF808604D68DAF80060ED03554602
:100FE00001D51E4300E09E432E604D68DBF8006093
:100FF000AD035D4601D51E4300E09E432E604D6863
:10100000DEF80060ED02754601D51E4300E09E4308
:101010002E604D68AD020E4D2E6801D51E4300E0D6
:101020009E432E60641C102CFFF444AFBDE8F88F83
:1010300000040140000011100010024000000140B7
:1010400000080140000C0140001001400014014064
:101050000C04014001488068704700001000002027
:1010600002488168027811448160704710000020B6
:10107000074810B5016841F010010160032000F03D
:10108000A1F80F2000F006F800F026F8002010BDAF
:101090000020024070B50D4D04464FF47A71287857
:1010A000B1FBF0F00A490968B1FBF0F000F011FB68
:1010B00048B9102C07D200222146501E00F062F8D9
:1010C00000206C6070BD012070BD00001000002089
:1010D0001C000020704700001D4808B5816941F0E0
:1010E00001018161806900F001000090032000F09F
:1010F00069F8002211466FF00B0000F043F800225F
:1011000011466FF00A0000F03DF8002211466FF022
:10111000090000F037F800221146501F00F032F8A5
:1011200000221146101F00F02DF800220F21901E02
:1011300000F028F800220F21501E00F023F8054887
:10114000416821F0E06141F00071416008BD00009C
:10115000001002400000014000F01F0201219140F8
:101160004009800000F1E020C0F88011704700F0D5
:101170001F02012191404009800000F1E020C0F8E9
:1011800000117047F0B40E4B1B680C46C3F30223EA
:10119000C3F10705042D00D90425191D072901D223
:1011A000002300E0DB1E012606FA05F1491E21405E
:1011B00099409E40761E16403143F0BC00F0F4BAD0
:1011C0000CED00E0064900F0070208684FF6FF0347
:1011D000184040EA0220034A1043086070470000AC
:1011E0000CED00E00000FA052DE9F047DFF83C8146
:1011F00005460E46D8F8000000F00700B0420CD2B9
:10120000D8F8001021F007013143C8F80010D8F8D1
:10121000000000F00700B04263D12878444C8007FA
:1012200005D56068A96820F0F00008436060287860
:10123000C00745D06868012816D02168022816D05A
:10124000890700294DDA616821F0030101436160DB
:10125000FFF700FF6968074641F2883001290FD087
:101260000229814619D027E021688903E9E789012D
:10127000E7E700BFFFF7EEFEC11B494501D918E0C3
:1012800081466068C0F381000128F3D118E000BFF7
:10129000FFF7E0FEC11B49450BD86068C0F3810031
:1012A0000228F5D10CE000BFFFF7D4FEC11B494571
:1012B00002D90320BDE8F087606810F00C0FF3D16D
:1012C000D8F80010404601F00701B1420BD901687F
:1012D00021F0070131430160006800F00700B042CF
:1012E00001D00120E6E72878400705D56068E96865
:1012F00020F4E060084360602878000706D5606845
:10130000296920F4605040EAC100606000F01CF8D8
:101310006168084AC1F30311515CC840064908607E
:101320000F20FFF7B7FE0020C4E7000000200240B6
:1013300000100240481D00081C0000200148006801
:10134000704700001C00002012A185B00FC98DE875
:101350000F0014A0144A006804905168134801F06B
:101360000C03042B10D0082B0ED1C1F38343C90307
:101370001DF803000AD5516804AAC1F34041515C2D
:101380000A4A5043B0FBF1F005B0704708494843A2
:10139000FAE7000002030405060708090A0B0C0D12
:1013A0000E0F1010010200000010024000127A001F
:1013B00000093D002DE9F84F04460078B94DC007FB
:1013C00048D06868C0F38100012807D06868C0F37E
:1013D0008100022809D16868C00306D52868800307
:1013E00038D5606800286FD034E06068B0F5803F81
:1013F0000BD010B1B0F5A02F11D0286820F48030A8
:101400002860286820F4802002E0286840F48030BA
:101410002860606888B1FFF71DFE064609E028686D
:1014200040F480202860F0E7FFF714FE801B64285A
:1014300075D828688003F7D50CE0FFF70BFE064649
:1014400005E000BFFFF706FE801B6428F0D828687F
:101450008003F7D42078944E80074FF001094FF0B5
:1014600000083BD5686810F00C0F07D06868C0F31F
:101470008100022809D16868C00306D42868800763
:1014800014D5206901281FD110E02069B0B1C6F839
:101490000090FFF7DFFD074605E000BFFFF7DAFD2C
:1014A000C01B0228C4D828688007F7D5286861695E
:1014B00020F0F80040EAC10028600FE0C6F8008084
:1014C000FFF7C8FD074606E0E9E000BFFFF7C2FDF1
:1014D000C01B022823D828688007F7D4207800078B
:1014E0002CD57248A169D9B1C0F80090FFF7B2FDC0
:1014F000074604E0FFF7AEFDC01B02280FD8686A5C
:101500008007F7D56A484FF4FA510068B0FBF1F054
:10151000009000BF0098411E0091FAD20EE080E0DA
:10152000C0F80080FFF796FD074604E0FFF792FD44
:10153000C01B022875D8686A8007F7D42078400756
:1015400060D5E8690027C00008D4E86940F0805001
:10155000E861E869012700F0805000905548016873
:10156000C90513D40168834641F480710160FFF717
:1015700071FD824606E000BFFFF76CFDA0EB0A009C
:1015800064284ED8DBF80000C005F5D5E0680128D6
:101590000AD008B1052813D0286A20F0010028627B
:1015A000286A20F0040002E0286A40F00100286266
:1015B000E06841F2883B98B1FFF74CFD82460BE0B2
:1015C000286A40F004002862EEE700BFFFF742FD02
:1015D000A0EB0A0159455AD8286A8007F6D50CE0D5
:1015E000FFF738FD824605E0FFF734FDA0EB0A0166
:1015F00059454CD8286A8007F6D41FB1E86920F015
:101600008050E861E06988B36968C1F3810102290B
:1016100045D00228C6F8608004D0FFF71BFD0446C1
:1016200038E034E0FFF716FD074604E0FFF712FD4F
:10163000C01B02282BD828688001F7D4206AB0F597
:10164000803F05D16868A16820F4003008436860D5
:10165000D4E908010843696821F4741108436860FB
:10166000C6F86090FFF7F6FC044606E015E000BF00
:10167000FFF7F0FC001B022809D828688001F7D585
:101680000BE000BFFFF7E6FC001B022802D9032095
:10169000BDE8F88F28688001F4D40020F8E7012025
:1016A000F6E700000010024000004242800442427F
:1016B0001C000020007000404FF0E0210428086961
:1016C00003D020F004000861704740F00400FAE7FE
:1016D000704710B5401EB0F1807F01D3012010BDCE
:1016E0004FF0E02460610F21601700F05DF80020EA
:1016F000A06107202061002010BD10B5FFF7E8FFB2
:1017000010BDFEE7054810B54468006880F30888FE
:10171000FFF7EEFAA446BDE810406047002000083D
:10172000104810B50E4901600921416000214FF4B5
:1017300000228160C0E903124FF4A002C0E9052134
:10174000C161016241628162C162FFF709F800284C
:1017500005D0BDE81040452103A000F0B2B810BD8F
:1017600000640040700400202E2E2F5372632F63FC
:10177000616E2E6300000000094808B5816941F0E0
:1017800020018161816901F020010091816941F0AE
:1017900004018161806900F00400009008BD000030
:1017A00000100240FEE770470907090E002806DA1C
:1017B00000F00F0000F1E02080F8141D704700F1E8
:1017C000E02080F80014704710B5FFF749FCBDE831
:1017D0001040FFF792BF30B58FB001210804CDE96A
:1017E00000100024029402250491CDE907504FF423
:1017F000E01009906846FFF7DDFD00B1FEE70F201D
:10180000CDE90A054FF48060CDE90C4002210AA819
:101810000E94FFF7E9FC00B1FEE7FFF78FFD4FF4F0
:101820007A71B0FBF1F0FFF754FF0420FFF744FF9B
:1018300000220F21501EFFF7A5FC0FB030BD0000A5
:101840000D48016841F00101016041680B4A1140F7
:10185000416001680A4A11400160016821F4802159
:101860000160416821F4FE0141604FF41F01816075
:101870000449C00308607047001002400000FFF8F0
:10188000FFFFF6FE08ED00E0064940F28E720B6B9A
:101890001A600B6B01221A61096B08751146014829
:1018A000FFF73EB9700400200148FEF73FBE00007C
:1018B000700400200148FEF739BE000070040020CB
:1018C000FEE7FEE702E008C8121F08C1002AFAD1AD
:1018D00070477047002001E001C1121F002AFBD1B0
:1018E000704700008AB0FFF7C3FBFFF774FFFFF7F4
:1018F00043FFFFF715FF1248104901631C31416394
:1019000000200121CDE90601039009910590009086
:10191000019002900891049069460948FEF78CFDF9
:1019200000210748FEF7FEFF4FF4FA70FFF7F0F9C9
:101930000448407808B9FFF7E5FEFEE720000020E4
:10194000700400200000002000000000963007779F
:101950002C610EEEBA51099919C46D078FF46A70A3
:1019600035A563E9A395649E3288DB0EA4B8DC79C3
:101970001EE9D5E088D9D2972B4CB609BD7CB17E43
:10198000072DB8E7911DBF906410B71DF220B06A13
:101990004871B9F3DE41BE847DD4DA1AEBE4DD6D23
:1019A00051B5D4F4C785D38356986C13C0A86B6423
:1019B0007AF962FDECC9658A4F5C0114D96C066343
:1019C000633D0FFAF50D088DC8206E3B5E10694C23
:1019D000E44160D5727167A2D1E4033C47D4044B63
:1019E000FD850DD26BB50AA5FAA8B5356C98B24243
:1019F000D6C9BBDB40F9BCACE36CD832755CDF45C3
:101A0000CF0DD6DC593DD1ABAC30D9263A00DE51F2
:101A10008051D7C81661D0BFB5F4B42123C4B356E2
:101A20009995BACF0FA5BDB89EB802280888055F62
:101A3000B2D90CC624E90BB1877C6F2F114C6858C2
:101A4000AB1D61C13D2D66B69041DC760671DB01B0
:101A5000BC20D2982A10D5EF8985B1711FB5B60682
:101A6000A5E4BF9F33D4B8E8A2C9077834F9000FC2
:101A70008EA8099618980EE1BB0D6A7F2D3D6D0862
:101A8000976C6491015C63E6F4516B6B62616C1C52
:101A9000D83065854E0062F2ED95066C7BA5011B82
:101AA000C1F4088257C40FF5C6D9B06550E9B71222
:101AB000EAB8BE8B7C88B9FCDF1DDD62492DDA15E2
:101AC000F37CD38C654CD4FB5861B24DCE51B53A02
:101AD0007400BCA3E230BBD441A5DF4AD795D83D02
:101AE0006DC4D1A4FBF4D6D36AE96943FCD96E3442
:101AF000468867ADD0B860DA732D0444E51D033322
:101B00005F4C0AAAC97C0DDD3C710550AA41022731
:101B100010100BBE86200CC925B56857B3856F2001
:101B200009D466B99FE461CE0EF9DE5E98C9D92961
:101B30002298D0B0B4A8D7C7173DB359810DB42EA1
:101B40003B5CBDB7AD6CBAC02083B8EDB6B3BF9AED
:101B50000CE2B6039AD2B1743947D5EAAF77D29D79
:101B60001526DB048316DC73120B63E3843B649459
:101B70003E6A6D0DA85A6A7A0BCF0EE49DFF099359
:101B800027AE000AB19E077D44930FF0D2A30887C9
:101B900068F2011EFEC206695D5762F7CB67658079
:101BA00071366C19E7066B6E761BD4FEE02BD38979
:101BB0005A7ADA10CC4ADD676FDFB9F9F9EFBE8ED9
:101BC00043BEB717D58EB060E8A3D6D67E93D1A119
:101BD000C4C2D83852F2DF4FF167BBD16757BCA6F9
:101BE000DD06B53F4B36B248DA2B0DD84C1B0AAF99
:101BF000F64A0336607A0441C3EF60DF55DF67A819
:101C0000EF8E6E3179BE69468CB361CB1A8366BCA8
:101C1000A0D26F2536E2685295770CCC03470BBBF8
:101C2000B91602222F260555BE3BBAC5280BBDB2F8
:101C3000925AB42B046AB35CA7FFD7C231CFD0B598
:101C40008B9ED92C1DAEDE5BB0C2649B26F263EC8A
:101C50009CA36A750A936D02A906099C3F360EEB98
:101C60008567077213570005824ABF95147AB8E258
:101C7000AE2BB17B381BB60C9B8ED2920DBED5E538
:101C8000B7EFDC7C21DFDB0BD4D2D38642E2D4F188
:101C9000F8B3DD686E83DA1FCD16BE815B26B9F618
:101CA000E177B06F7747B718E65A0888706A0FFF78
:101CB000CA3B06665C0B0111FF9E658F69AE62F838
:101CC000D3FF6B6145CF6C1678E20AA0EED20DD738
:101CD0005483044EC2B30339612667A7F71660D058
:101CE0004D476949DB776E3E4A6AD1AEDC5AD6D998
:101CF000660BDF40F03BD83753AEBCA9C59EBBDEB8
:101D00007FCFB247E9FFB5301CF2BDBD8AC2BACA67
:101D10003093B353A6A3B4240536D0BA9306D7CDD7
:101D20002957DE54BF67D9232E7A66B3B84A61C4F7
:101D3000021B685D942B6F2A37BE0BB4A18E0CC3B7
:101D40001BDF055A8DEF022D00000000000000008F
:101D50000102030406070809781D0008000000209E
:101D600020000000C4180008981D00082000002072
:101D7000B8080000D41800080000000000000000AF
:101D80000000000000000000010000001000000042
:081D90000000000000A24A045B
:04000005080000ED02
:00000001FF
